ARM GAS  C:\Users\diego\AppData\Local\Temp\ccGfyfKg.s 			page 1


   1              		.syntax unified
   2              		.cpu cortex-m0
   3              		.fpu softvfp
   4              		.eabi_attribute 20, 1
   5              		.eabi_attribute 21, 1
   6              		.eabi_attribute 23, 3
   7              		.eabi_attribute 24, 1
   8              		.eabi_attribute 25, 1
   9              		.eabi_attribute 26, 1
  10              		.eabi_attribute 30, 6
  11              		.eabi_attribute 34, 0
  12              		.eabi_attribute 18, 4
  13              		.thumb
  14              		.syntax unified
  15              		.file	"m95020.c"
  16              		.text
  17              	.Ltext0:
  18              		.cfi_sections	.debug_frame
  19              		.comm	status_reg,4,4
  20              		.comm	arr,100,4
  21              		.section	.text.fram_init,"ax",%progbits
  22              		.align	2
  23              		.global	fram_init
  24              		.code	16
  25              		.thumb_func
  26              		.type	fram_init, %function
  27              	fram_init:
  28              	.LFB2:
  29              		.file 1 "m95020.c"
   1:m95020.c      **** /* ========================================
   2:m95020.c      ****  *
   3:m95020.c      ****  * Copyright YOUR COMPANY, THE YEAR
   4:m95020.c      ****  * All Rights Reserved
   5:m95020.c      ****  * UNPUBLISHED, LICENSED SOFTWARE.
   6:m95020.c      ****  *
   7:m95020.c      ****  * CONFIDENTIAL AND PROPRIETARY INFORMATION
   8:m95020.c      ****  * WHICH IS THE PROPERTY OF your company.
   9:m95020.c      ****  *
  10:m95020.c      ****  * ========================================
  11:m95020.c      **** */
  12:m95020.c      **** 
  13:m95020.c      **** /* [] END OF FILE */
  14:m95020.c      **** 
  15:m95020.c      **** #include "m95020.h"
  16:m95020.c      **** 
  17:m95020.c      **** #include "SPIM.h"
  18:m95020.c      **** #include "SPIM_SPI_UART.h"
  19:m95020.c      **** #include "SPIM_PINS.h"
  20:m95020.c      **** #include "SPIM_SPI_UART_PVT.h"
  21:m95020.c      **** #include "SPIM_PVT.h"
  22:m95020.c      **** #include "SPIM_BOOT.h"
  23:m95020.c      **** 
  24:m95020.c      **** #include "cs_ee.h"
  25:m95020.c      **** 
  26:m95020.c      **** void    fram_write_enable();
  27:m95020.c      **** uint8_t fram_write_isenable();
  28:m95020.c      **** uint8_t fram_read_statusreg();
ARM GAS  C:\Users\diego\AppData\Local\Temp\ccGfyfKg.s 			page 2


  29:m95020.c      **** 
  30:m95020.c      **** statusreg_u status_reg;
  31:m95020.c      **** 
  32:m95020.c      **** uint8_t arr[100];
  33:m95020.c      **** 
  34:m95020.c      **** uint8_t fram_init()
  35:m95020.c      **** {
  30              		.loc 1 35 0
  31              		.cfi_startproc
  32              		@ args = 0, pretend = 0, frame = 8
  33              		@ frame_needed = 1, uses_anonymous_args = 0
  34 0000 80B5     		push	{r7, lr}
  35              		.cfi_def_cfa_offset 8
  36              		.cfi_offset 7, -8
  37              		.cfi_offset 14, -4
  38 0002 82B0     		sub	sp, sp, #8
  39              		.cfi_def_cfa_offset 16
  40 0004 00AF     		add	r7, sp, #0
  41              		.cfi_def_cfa_register 7
  36:m95020.c      ****     
  37:m95020.c      ****     uint8_t test = 0xaa;
  42              		.loc 1 37 0
  43 0006 FB1D     		adds	r3, r7, #7
  44 0008 AA22     		movs	r2, #170
  45 000a 1A70     		strb	r2, [r3]
  38:m95020.c      ****     
  39:m95020.c      ****     fram_write_byte(0,test);
  46              		.loc 1 39 0
  47 000c FB1D     		adds	r3, r7, #7
  48 000e 1B78     		ldrb	r3, [r3]
  49 0010 1900     		movs	r1, r3
  50 0012 0020     		movs	r0, #0
  51 0014 FFF7FEFF 		bl	fram_write_byte
  40:m95020.c      ****     
  41:m95020.c      ****     test = 0;
  52              		.loc 1 41 0
  53 0018 FB1D     		adds	r3, r7, #7
  54 001a 0022     		movs	r2, #0
  55 001c 1A70     		strb	r2, [r3]
  42:m95020.c      ****     
  43:m95020.c      ****     fram_read_byte(0,&test);
  56              		.loc 1 43 0
  57 001e FB1D     		adds	r3, r7, #7
  58 0020 1900     		movs	r1, r3
  59 0022 0020     		movs	r0, #0
  60 0024 FFF7FEFF 		bl	fram_read_byte
  44:m95020.c      **** 
  45:m95020.c      ****     
  46:m95020.c      **** //    for( test = 0; test < 100; test++)
  47:m95020.c      **** //    {
  48:m95020.c      **** //        if( (test %2) == 0 )
  49:m95020.c      **** //            arr[test] = 0x55;    
  50:m95020.c      **** //        else arr[test] = 0xaa;    
  51:m95020.c      **** //    }
  52:m95020.c      **** //    
  53:m95020.c      **** //    fram_write_array( 1, arr , 100 );
  54:m95020.c      **** //    
ARM GAS  C:\Users\diego\AppData\Local\Temp\ccGfyfKg.s 			page 3


  55:m95020.c      **** //    for( test = 0; test < 100; test++)
  56:m95020.c      **** //    {
  57:m95020.c      **** //        arr[test] = 0;    
  58:m95020.c      **** //    }
  59:m95020.c      **** //
  60:m95020.c      **** //    fram_read_array(1,arr,100);
  61:m95020.c      ****     
  62:m95020.c      ****     if( test == 0xAA ) return 1;
  61              		.loc 1 62 0
  62 0028 FB1D     		adds	r3, r7, #7
  63 002a 1B78     		ldrb	r3, [r3]
  64 002c AA2B     		cmp	r3, #170
  65 002e 01D1     		bne	.L2
  66              		.loc 1 62 0 is_stmt 0 discriminator 1
  67 0030 0123     		movs	r3, #1
  68 0032 00E0     		b	.L4
  69              	.L2:
  63:m95020.c      ****     else               return 0;
  70              		.loc 1 63 0 is_stmt 1
  71 0034 0023     		movs	r3, #0
  72              	.L4:
  64:m95020.c      ****     
  65:m95020.c      **** }
  73              		.loc 1 65 0 discriminator 1
  74 0036 1800     		movs	r0, r3
  75 0038 BD46     		mov	sp, r7
  76 003a 02B0     		add	sp, sp, #8
  77              		@ sp needed
  78 003c 80BD     		pop	{r7, pc}
  79              		.cfi_endproc
  80              	.LFE2:
  81              		.size	fram_init, .-fram_init
  82 003e C046     		.section	.text.fram_write_byte,"ax",%progbits
  83              		.align	2
  84              		.global	fram_write_byte
  85              		.code	16
  86              		.thumb_func
  87              		.type	fram_write_byte, %function
  88              	fram_write_byte:
  89              	.LFB3:
  66:m95020.c      **** 
  67:m95020.c      **** 
  68:m95020.c      **** void fram_write_byte( uint8_t address, uint8_t val )
  69:m95020.c      **** {
  90              		.loc 1 69 0
  91              		.cfi_startproc
  92              		@ args = 0, pretend = 0, frame = 16
  93              		@ frame_needed = 1, uses_anonymous_args = 0
  94 0000 80B5     		push	{r7, lr}
  95              		.cfi_def_cfa_offset 8
  96              		.cfi_offset 7, -8
  97              		.cfi_offset 14, -4
  98 0002 84B0     		sub	sp, sp, #16
  99              		.cfi_def_cfa_offset 24
 100 0004 00AF     		add	r7, sp, #0
 101              		.cfi_def_cfa_register 7
 102 0006 0200     		movs	r2, r0
ARM GAS  C:\Users\diego\AppData\Local\Temp\ccGfyfKg.s 			page 4


 103 0008 FB1D     		adds	r3, r7, #7
 104 000a 1A70     		strb	r2, [r3]
 105 000c BB1D     		adds	r3, r7, #6
 106 000e 0A1C     		adds	r2, r1, #0
 107 0010 1A70     		strb	r2, [r3]
  70:m95020.c      ****     uint8_t buf[3];
  71:m95020.c      ****     fram_write_enable();
 108              		.loc 1 71 0
 109 0012 FFF7FEFF 		bl	fram_write_enable
  72:m95020.c      **** 
  73:m95020.c      ****     buf[0] = WRITE;
 110              		.loc 1 73 0
 111 0016 0C23     		movs	r3, #12
 112 0018 FB18     		adds	r3, r7, r3
 113 001a 0222     		movs	r2, #2
 114 001c 1A70     		strb	r2, [r3]
  74:m95020.c      ****     buf[1] = address;
 115              		.loc 1 74 0
 116 001e 0C23     		movs	r3, #12
 117 0020 FB18     		adds	r3, r7, r3
 118 0022 FA1D     		adds	r2, r7, #7
 119 0024 1278     		ldrb	r2, [r2]
 120 0026 5A70     		strb	r2, [r3, #1]
  75:m95020.c      ****     buf[2] = val;
 121              		.loc 1 75 0
 122 0028 0C23     		movs	r3, #12
 123 002a FB18     		adds	r3, r7, r3
 124 002c BA1D     		adds	r2, r7, #6
 125 002e 1278     		ldrb	r2, [r2]
 126 0030 9A70     		strb	r2, [r3, #2]
  76:m95020.c      ****     
  77:m95020.c      ****     SPIM_SpiUartClearRxBuffer();
 127              		.loc 1 77 0
 128 0032 FFF7FEFF 		bl	SPIM_SpiUartClearRxBuffer
  78:m95020.c      ****     
  79:m95020.c      ****     cs_ee_Write(0);
 129              		.loc 1 79 0
 130 0036 0020     		movs	r0, #0
 131 0038 FFF7FEFF 		bl	cs_ee_Write
  80:m95020.c      ****     
  81:m95020.c      ****     CyDelayUs(5);
 132              		.loc 1 81 0
 133 003c 0520     		movs	r0, #5
 134 003e FFF7FEFF 		bl	CyDelayUs
  82:m95020.c      ****     
  83:m95020.c      ****     SPIM_SpiUartPutArray(buf,3);
 135              		.loc 1 83 0
 136 0042 0C23     		movs	r3, #12
 137 0044 FB18     		adds	r3, r7, r3
 138 0046 0321     		movs	r1, #3
 139 0048 1800     		movs	r0, r3
 140 004a FFF7FEFF 		bl	SPIM_SpiUartPutArray
  84:m95020.c      ****         
  85:m95020.c      ****     while (SPIM_SpiUartGetRxBufferSize() != 3 )
 141              		.loc 1 85 0
 142 004e C046     		nop
 143              	.L6:
ARM GAS  C:\Users\diego\AppData\Local\Temp\ccGfyfKg.s 			page 5


 144              		.loc 1 85 0 is_stmt 0 discriminator 1
 145 0050 FFF7FEFF 		bl	SPIM_SpiUartGetRxBufferSize
 146 0054 0300     		movs	r3, r0
 147 0056 032B     		cmp	r3, #3
 148 0058 FAD1     		bne	.L6
  86:m95020.c      ****     {
  87:m95020.c      ****     }
  88:m95020.c      **** 
  89:m95020.c      ****     cs_ee_Write(1);
 149              		.loc 1 89 0 is_stmt 1
 150 005a 0120     		movs	r0, #1
 151 005c FFF7FEFF 		bl	cs_ee_Write
  90:m95020.c      ****     
  91:m95020.c      ****     SPIM_SpiUartClearTxBuffer();
 152              		.loc 1 91 0
 153 0060 FFF7FEFF 		bl	SPIM_SpiUartClearTxBuffer
 154              	.L7:
  92:m95020.c      ****     
  93:m95020.c      ****     do 
  94:m95020.c      ****     {
  95:m95020.c      ****         fram_read_statusreg();
 155              		.loc 1 95 0 discriminator 1
 156 0064 FFF7FEFF 		bl	fram_read_statusreg
  96:m95020.c      ****         CyDelay(1);
 157              		.loc 1 96 0 discriminator 1
 158 0068 0120     		movs	r0, #1
 159 006a FFF7FEFF 		bl	CyDelay
  97:m95020.c      ****     }while( status_reg.b.WIP );
 160              		.loc 1 97 0 discriminator 1
 161 006e 054B     		ldr	r3, .L8
 162 0070 1B78     		ldrb	r3, [r3]
 163 0072 0122     		movs	r2, #1
 164 0074 1340     		ands	r3, r2
 165 0076 DBB2     		uxtb	r3, r3
 166 0078 002B     		cmp	r3, #0
 167 007a F3D1     		bne	.L7
  98:m95020.c      **** 
  99:m95020.c      **** }
 168              		.loc 1 99 0
 169 007c C046     		nop
 170 007e BD46     		mov	sp, r7
 171 0080 04B0     		add	sp, sp, #16
 172              		@ sp needed
 173 0082 80BD     		pop	{r7, pc}
 174              	.L9:
 175              		.align	2
 176              	.L8:
 177 0084 00000000 		.word	status_reg
 178              		.cfi_endproc
 179              	.LFE3:
 180              		.size	fram_write_byte, .-fram_write_byte
 181              		.section	.text.fram_read_byte,"ax",%progbits
 182              		.align	2
 183              		.global	fram_read_byte
 184              		.code	16
 185              		.thumb_func
 186              		.type	fram_read_byte, %function
ARM GAS  C:\Users\diego\AppData\Local\Temp\ccGfyfKg.s 			page 6


 187              	fram_read_byte:
 188              	.LFB4:
 100:m95020.c      **** 
 101:m95020.c      **** void fram_read_byte( uint8_t address, uint8_t* val )
 102:m95020.c      **** {
 189              		.loc 1 102 0
 190              		.cfi_startproc
 191              		@ args = 0, pretend = 0, frame = 16
 192              		@ frame_needed = 1, uses_anonymous_args = 0
 193 0000 80B5     		push	{r7, lr}
 194              		.cfi_def_cfa_offset 8
 195              		.cfi_offset 7, -8
 196              		.cfi_offset 14, -4
 197 0002 84B0     		sub	sp, sp, #16
 198              		.cfi_def_cfa_offset 24
 199 0004 00AF     		add	r7, sp, #0
 200              		.cfi_def_cfa_register 7
 201 0006 0200     		movs	r2, r0
 202 0008 3960     		str	r1, [r7]
 203 000a FB1D     		adds	r3, r7, #7
 204 000c 1A70     		strb	r2, [r3]
 103:m95020.c      ****     uint8_t buf[3];
 104:m95020.c      ****     fram_write_enable();
 205              		.loc 1 104 0
 206 000e FFF7FEFF 		bl	fram_write_enable
 105:m95020.c      **** 
 106:m95020.c      ****     buf[0] = READ;
 207              		.loc 1 106 0
 208 0012 0C23     		movs	r3, #12
 209 0014 FB18     		adds	r3, r7, r3
 210 0016 0322     		movs	r2, #3
 211 0018 1A70     		strb	r2, [r3]
 107:m95020.c      ****     buf[1] = address;
 212              		.loc 1 107 0
 213 001a 0C23     		movs	r3, #12
 214 001c FB18     		adds	r3, r7, r3
 215 001e FA1D     		adds	r2, r7, #7
 216 0020 1278     		ldrb	r2, [r2]
 217 0022 5A70     		strb	r2, [r3, #1]
 108:m95020.c      ****     buf[2] = 0;
 218              		.loc 1 108 0
 219 0024 0C23     		movs	r3, #12
 220 0026 FB18     		adds	r3, r7, r3
 221 0028 0022     		movs	r2, #0
 222 002a 9A70     		strb	r2, [r3, #2]
 109:m95020.c      ****     
 110:m95020.c      ****     SPIM_SpiUartClearRxBuffer();
 223              		.loc 1 110 0
 224 002c FFF7FEFF 		bl	SPIM_SpiUartClearRxBuffer
 111:m95020.c      ****     
 112:m95020.c      ****     cs_ee_Write(0);
 225              		.loc 1 112 0
 226 0030 0020     		movs	r0, #0
 227 0032 FFF7FEFF 		bl	cs_ee_Write
 113:m95020.c      ****     
 114:m95020.c      ****     CyDelayUs(5);
 228              		.loc 1 114 0
ARM GAS  C:\Users\diego\AppData\Local\Temp\ccGfyfKg.s 			page 7


 229 0036 0520     		movs	r0, #5
 230 0038 FFF7FEFF 		bl	CyDelayUs
 115:m95020.c      ****     
 116:m95020.c      ****     SPIM_SpiUartPutArray(buf,3);
 231              		.loc 1 116 0
 232 003c 0C23     		movs	r3, #12
 233 003e FB18     		adds	r3, r7, r3
 234 0040 0321     		movs	r1, #3
 235 0042 1800     		movs	r0, r3
 236 0044 FFF7FEFF 		bl	SPIM_SpiUartPutArray
 117:m95020.c      ****         
 118:m95020.c      ****     while (SPIM_SpiUartGetRxBufferSize() != 3 )
 237              		.loc 1 118 0
 238 0048 C046     		nop
 239              	.L11:
 240              		.loc 1 118 0 is_stmt 0 discriminator 1
 241 004a FFF7FEFF 		bl	SPIM_SpiUartGetRxBufferSize
 242 004e 0300     		movs	r3, r0
 243 0050 032B     		cmp	r3, #3
 244 0052 FAD1     		bne	.L11
 119:m95020.c      ****     {
 120:m95020.c      ****     }
 121:m95020.c      ****     
 122:m95020.c      ****     cs_ee_Write(1);
 245              		.loc 1 122 0 is_stmt 1
 246 0054 0120     		movs	r0, #1
 247 0056 FFF7FEFF 		bl	cs_ee_Write
 123:m95020.c      **** 
 124:m95020.c      ****     buf[0] = SPIM_SpiUartReadRxData();
 248              		.loc 1 124 0
 249 005a FFF7FEFF 		bl	SPIM_SpiUartReadRxData
 250 005e 0300     		movs	r3, r0
 251 0060 DAB2     		uxtb	r2, r3
 252 0062 0C23     		movs	r3, #12
 253 0064 FB18     		adds	r3, r7, r3
 254 0066 1A70     		strb	r2, [r3]
 125:m95020.c      ****     buf[1] = SPIM_SpiUartReadRxData();
 255              		.loc 1 125 0
 256 0068 FFF7FEFF 		bl	SPIM_SpiUartReadRxData
 257 006c 0300     		movs	r3, r0
 258 006e DAB2     		uxtb	r2, r3
 259 0070 0C23     		movs	r3, #12
 260 0072 FB18     		adds	r3, r7, r3
 261 0074 5A70     		strb	r2, [r3, #1]
 126:m95020.c      **** 
 127:m95020.c      ****     *val = SPIM_SpiUartReadRxData();
 262              		.loc 1 127 0
 263 0076 FFF7FEFF 		bl	SPIM_SpiUartReadRxData
 264 007a 0300     		movs	r3, r0
 265 007c DAB2     		uxtb	r2, r3
 266 007e 3B68     		ldr	r3, [r7]
 267 0080 1A70     		strb	r2, [r3]
 128:m95020.c      ****     
 129:m95020.c      ****     SPIM_SpiUartClearTxBuffer();
 268              		.loc 1 129 0
 269 0082 FFF7FEFF 		bl	SPIM_SpiUartClearTxBuffer
 130:m95020.c      ****     
ARM GAS  C:\Users\diego\AppData\Local\Temp\ccGfyfKg.s 			page 8


 131:m95020.c      **** }
 270              		.loc 1 131 0
 271 0086 C046     		nop
 272 0088 BD46     		mov	sp, r7
 273 008a 04B0     		add	sp, sp, #16
 274              		@ sp needed
 275 008c 80BD     		pop	{r7, pc}
 276              		.cfi_endproc
 277              	.LFE4:
 278              		.size	fram_read_byte, .-fram_read_byte
 279              		.section	.text.fram_write_array,"ax",%progbits
 280              		.align	2
 281              		.global	fram_write_array
 282              		.code	16
 283              		.thumb_func
 284              		.type	fram_write_array, %function
 285              	fram_write_array:
 286              	.LFB5:
 132:m95020.c      **** 
 133:m95020.c      **** uint8_t fram_write_array( uint8_t address, uint8_t* array, uint8_t len)
 134:m95020.c      **** {
 287              		.loc 1 134 0
 288              		.cfi_startproc
 289              		@ args = 0, pretend = 0, frame = 16
 290              		@ frame_needed = 1, uses_anonymous_args = 0
 291 0000 80B5     		push	{r7, lr}
 292              		.cfi_def_cfa_offset 8
 293              		.cfi_offset 7, -8
 294              		.cfi_offset 14, -4
 295 0002 84B0     		sub	sp, sp, #16
 296              		.cfi_def_cfa_offset 24
 297 0004 00AF     		add	r7, sp, #0
 298              		.cfi_def_cfa_register 7
 299 0006 3960     		str	r1, [r7]
 300 0008 1100     		movs	r1, r2
 301 000a FB1D     		adds	r3, r7, #7
 302 000c 021C     		adds	r2, r0, #0
 303 000e 1A70     		strb	r2, [r3]
 304 0010 BB1D     		adds	r3, r7, #6
 305 0012 0A1C     		adds	r2, r1, #0
 306 0014 1A70     		strb	r2, [r3]
 135:m95020.c      ****     uint8_t buf[2];
 136:m95020.c      ****     
 137:m95020.c      ****     if( ((uint16_t)address + (uint16_t)len) > 254 ) return 0;
 307              		.loc 1 137 0
 308 0016 FB1D     		adds	r3, r7, #7
 309 0018 1A78     		ldrb	r2, [r3]
 310 001a BB1D     		adds	r3, r7, #6
 311 001c 1B78     		ldrb	r3, [r3]
 312 001e D318     		adds	r3, r2, r3
 313 0020 FE2B     		cmp	r3, #254
 314 0022 16DD     		ble	.L15
 315              		.loc 1 137 0 is_stmt 0 discriminator 1
 316 0024 0023     		movs	r3, #0
 317 0026 19E0     		b	.L17
 318              	.L16:
 138:m95020.c      ****     
ARM GAS  C:\Users\diego\AppData\Local\Temp\ccGfyfKg.s 			page 9


 139:m95020.c      **** //    fram_write_enable();
 140:m95020.c      **** //    
 141:m95020.c      **** //    buf[0] = WRITE;
 142:m95020.c      **** //    buf[1] = address;
 143:m95020.c      **** //    
 144:m95020.c      **** //    SPIM_SpiUartClearRxBuffer();
 145:m95020.c      ****     
 146:m95020.c      ****     while(len)
 147:m95020.c      ****     {
 148:m95020.c      ****         fram_write_byte(address,*array);
 319              		.loc 1 148 0 is_stmt 1
 320 0028 3B68     		ldr	r3, [r7]
 321 002a 1A78     		ldrb	r2, [r3]
 322 002c FB1D     		adds	r3, r7, #7
 323 002e 1B78     		ldrb	r3, [r3]
 324 0030 1100     		movs	r1, r2
 325 0032 1800     		movs	r0, r3
 326 0034 FFF7FEFF 		bl	fram_write_byte
 149:m95020.c      ****         ++address;
 327              		.loc 1 149 0
 328 0038 FB1D     		adds	r3, r7, #7
 329 003a FA1D     		adds	r2, r7, #7
 330 003c 1278     		ldrb	r2, [r2]
 331 003e 0132     		adds	r2, r2, #1
 332 0040 1A70     		strb	r2, [r3]
 150:m95020.c      ****         ++array;
 333              		.loc 1 150 0
 334 0042 3B68     		ldr	r3, [r7]
 335 0044 0133     		adds	r3, r3, #1
 336 0046 3B60     		str	r3, [r7]
 151:m95020.c      ****         --len;        
 337              		.loc 1 151 0
 338 0048 BB1D     		adds	r3, r7, #6
 339 004a BA1D     		adds	r2, r7, #6
 340 004c 1278     		ldrb	r2, [r2]
 341 004e 013A     		subs	r2, r2, #1
 342 0050 1A70     		strb	r2, [r3]
 343              	.L15:
 146:m95020.c      ****     {
 344              		.loc 1 146 0
 345 0052 BB1D     		adds	r3, r7, #6
 346 0054 1B78     		ldrb	r3, [r3]
 347 0056 002B     		cmp	r3, #0
 348 0058 E6D1     		bne	.L16
 152:m95020.c      ****     }
 153:m95020.c      ****     
 154:m95020.c      **** //    cs_ee_Write(0);
 155:m95020.c      **** //    
 156:m95020.c      **** //    CyDelayUs(5);
 157:m95020.c      **** //    
 158:m95020.c      **** //    SPIM_SpiUartPutArray( buf, 2);  
 159:m95020.c      **** //    SPIM_SpiUartPutArray( array, len);
 160:m95020.c      **** //
 161:m95020.c      **** //    cs_ee_Write(1);
 162:m95020.c      **** //
 163:m95020.c      **** //    SPIM_SpiUartClearTxBuffer();
 164:m95020.c      ****     
ARM GAS  C:\Users\diego\AppData\Local\Temp\ccGfyfKg.s 			page 10


 165:m95020.c      **** //    do 
 166:m95020.c      **** //    {
 167:m95020.c      **** //        fram_read_statusreg();
 168:m95020.c      **** //        CyDelay(1);
 169:m95020.c      **** //    }while( status_reg.b.WIP );
 170:m95020.c      ****     
 171:m95020.c      ****     return 1;
 349              		.loc 1 171 0
 350 005a 0123     		movs	r3, #1
 351              	.L17:
 172:m95020.c      ****     
 173:m95020.c      **** }
 352              		.loc 1 173 0 discriminator 1
 353 005c 1800     		movs	r0, r3
 354 005e BD46     		mov	sp, r7
 355 0060 04B0     		add	sp, sp, #16
 356              		@ sp needed
 357 0062 80BD     		pop	{r7, pc}
 358              		.cfi_endproc
 359              	.LFE5:
 360              		.size	fram_write_array, .-fram_write_array
 361              		.section	.text.fram_read_array,"ax",%progbits
 362              		.align	2
 363              		.global	fram_read_array
 364              		.code	16
 365              		.thumb_func
 366              		.type	fram_read_array, %function
 367              	fram_read_array:
 368              	.LFB6:
 174:m95020.c      **** 
 175:m95020.c      **** uint8_t fram_read_array( uint8_t address, uint8_t* array, uint8_t len)
 176:m95020.c      **** {
 369              		.loc 1 176 0
 370              		.cfi_startproc
 371              		@ args = 0, pretend = 0, frame = 16
 372              		@ frame_needed = 1, uses_anonymous_args = 0
 373 0000 80B5     		push	{r7, lr}
 374              		.cfi_def_cfa_offset 8
 375              		.cfi_offset 7, -8
 376              		.cfi_offset 14, -4
 377 0002 84B0     		sub	sp, sp, #16
 378              		.cfi_def_cfa_offset 24
 379 0004 00AF     		add	r7, sp, #0
 380              		.cfi_def_cfa_register 7
 381 0006 3960     		str	r1, [r7]
 382 0008 1100     		movs	r1, r2
 383 000a FB1D     		adds	r3, r7, #7
 384 000c 021C     		adds	r2, r0, #0
 385 000e 1A70     		strb	r2, [r3]
 386 0010 BB1D     		adds	r3, r7, #6
 387 0012 0A1C     		adds	r2, r1, #0
 388 0014 1A70     		strb	r2, [r3]
 177:m95020.c      ****     uint8_t buf[2];
 178:m95020.c      ****     
 179:m95020.c      ****     if( ((uint16_t)address + (uint16_t)len) > 254 ) return 0;
 389              		.loc 1 179 0
 390 0016 FB1D     		adds	r3, r7, #7
ARM GAS  C:\Users\diego\AppData\Local\Temp\ccGfyfKg.s 			page 11


 391 0018 1A78     		ldrb	r2, [r3]
 392 001a BB1D     		adds	r3, r7, #6
 393 001c 1B78     		ldrb	r3, [r3]
 394 001e D318     		adds	r3, r2, r3
 395 0020 FE2B     		cmp	r3, #254
 396 0022 15DD     		ble	.L21
 397              		.loc 1 179 0 is_stmt 0 discriminator 1
 398 0024 0023     		movs	r3, #0
 399 0026 18E0     		b	.L23
 400              	.L22:
 180:m95020.c      ****     
 181:m95020.c      ****     while(len)
 182:m95020.c      ****     {
 183:m95020.c      ****         fram_read_byte(address,array);
 401              		.loc 1 183 0 is_stmt 1
 402 0028 3A68     		ldr	r2, [r7]
 403 002a FB1D     		adds	r3, r7, #7
 404 002c 1B78     		ldrb	r3, [r3]
 405 002e 1100     		movs	r1, r2
 406 0030 1800     		movs	r0, r3
 407 0032 FFF7FEFF 		bl	fram_read_byte
 184:m95020.c      ****         ++address;
 408              		.loc 1 184 0
 409 0036 FB1D     		adds	r3, r7, #7
 410 0038 FA1D     		adds	r2, r7, #7
 411 003a 1278     		ldrb	r2, [r2]
 412 003c 0132     		adds	r2, r2, #1
 413 003e 1A70     		strb	r2, [r3]
 185:m95020.c      ****         ++array;
 414              		.loc 1 185 0
 415 0040 3B68     		ldr	r3, [r7]
 416 0042 0133     		adds	r3, r3, #1
 417 0044 3B60     		str	r3, [r7]
 186:m95020.c      ****         --len;    
 418              		.loc 1 186 0
 419 0046 BB1D     		adds	r3, r7, #6
 420 0048 BA1D     		adds	r2, r7, #6
 421 004a 1278     		ldrb	r2, [r2]
 422 004c 013A     		subs	r2, r2, #1
 423 004e 1A70     		strb	r2, [r3]
 424              	.L21:
 181:m95020.c      ****     {
 425              		.loc 1 181 0
 426 0050 BB1D     		adds	r3, r7, #6
 427 0052 1B78     		ldrb	r3, [r3]
 428 0054 002B     		cmp	r3, #0
 429 0056 E7D1     		bne	.L22
 187:m95020.c      ****     }    
 188:m95020.c      ****     return 1;
 430              		.loc 1 188 0
 431 0058 0123     		movs	r3, #1
 432              	.L23:
 189:m95020.c      **** }
 433              		.loc 1 189 0 discriminator 1
 434 005a 1800     		movs	r0, r3
 435 005c BD46     		mov	sp, r7
 436 005e 04B0     		add	sp, sp, #16
ARM GAS  C:\Users\diego\AppData\Local\Temp\ccGfyfKg.s 			page 12


 437              		@ sp needed
 438 0060 80BD     		pop	{r7, pc}
 439              		.cfi_endproc
 440              	.LFE6:
 441              		.size	fram_read_array, .-fram_read_array
 442 0062 C046     		.section	.text.fram_write_enable,"ax",%progbits
 443              		.align	2
 444              		.global	fram_write_enable
 445              		.code	16
 446              		.thumb_func
 447              		.type	fram_write_enable, %function
 448              	fram_write_enable:
 449              	.LFB7:
 190:m95020.c      **** 
 191:m95020.c      **** void fram_write_enable()
 192:m95020.c      **** {
 450              		.loc 1 192 0
 451              		.cfi_startproc
 452              		@ args = 0, pretend = 0, frame = 8
 453              		@ frame_needed = 1, uses_anonymous_args = 0
 454 0000 80B5     		push	{r7, lr}
 455              		.cfi_def_cfa_offset 8
 456              		.cfi_offset 7, -8
 457              		.cfi_offset 14, -4
 458 0002 82B0     		sub	sp, sp, #8
 459              		.cfi_def_cfa_offset 16
 460 0004 00AF     		add	r7, sp, #0
 461              		.cfi_def_cfa_register 7
 193:m95020.c      ****     uint8_t reg = WREN;    
 462              		.loc 1 193 0
 463 0006 FB1D     		adds	r3, r7, #7
 464 0008 0622     		movs	r2, #6
 465 000a 1A70     		strb	r2, [r3]
 194:m95020.c      ****     
 195:m95020.c      ****     SPIM_SpiUartClearRxBuffer();
 466              		.loc 1 195 0
 467 000c FFF7FEFF 		bl	SPIM_SpiUartClearRxBuffer
 196:m95020.c      ****     
 197:m95020.c      ****     cs_ee_Write(0);
 468              		.loc 1 197 0
 469 0010 0020     		movs	r0, #0
 470 0012 FFF7FEFF 		bl	cs_ee_Write
 198:m95020.c      ****     
 199:m95020.c      ****     CyDelayUs(5);
 471              		.loc 1 199 0
 472 0016 0520     		movs	r0, #5
 473 0018 FFF7FEFF 		bl	CyDelayUs
 200:m95020.c      ****     
 201:m95020.c      ****     SPIM_SpiUartWriteTxData( (uint32_t)reg );
 474              		.loc 1 201 0
 475 001c FB1D     		adds	r3, r7, #7
 476 001e 1B78     		ldrb	r3, [r3]
 477 0020 1800     		movs	r0, r3
 478 0022 FFF7FEFF 		bl	SPIM_SpiUartWriteTxData
 202:m95020.c      ****     
 203:m95020.c      ****     CyDelayUs(5);
 479              		.loc 1 203 0
ARM GAS  C:\Users\diego\AppData\Local\Temp\ccGfyfKg.s 			page 13


 480 0026 0520     		movs	r0, #5
 481 0028 FFF7FEFF 		bl	CyDelayUs
 204:m95020.c      **** 
 205:m95020.c      ****     cs_ee_Write(1);
 482              		.loc 1 205 0
 483 002c 0120     		movs	r0, #1
 484 002e FFF7FEFF 		bl	cs_ee_Write
 206:m95020.c      **** }
 485              		.loc 1 206 0
 486 0032 C046     		nop
 487 0034 BD46     		mov	sp, r7
 488 0036 02B0     		add	sp, sp, #8
 489              		@ sp needed
 490 0038 80BD     		pop	{r7, pc}
 491              		.cfi_endproc
 492              	.LFE7:
 493              		.size	fram_write_enable, .-fram_write_enable
 494 003a C046     		.section	.text.fram_write_isenable,"ax",%progbits
 495              		.align	2
 496              		.global	fram_write_isenable
 497              		.code	16
 498              		.thumb_func
 499              		.type	fram_write_isenable, %function
 500              	fram_write_isenable:
 501              	.LFB8:
 207:m95020.c      **** 
 208:m95020.c      **** uint8_t fram_write_isenable()
 209:m95020.c      **** {
 502              		.loc 1 209 0
 503              		.cfi_startproc
 504              		@ args = 0, pretend = 0, frame = 0
 505              		@ frame_needed = 1, uses_anonymous_args = 0
 506 0000 80B5     		push	{r7, lr}
 507              		.cfi_def_cfa_offset 8
 508              		.cfi_offset 7, -8
 509              		.cfi_offset 14, -4
 510 0002 00AF     		add	r7, sp, #0
 511              		.cfi_def_cfa_register 7
 210:m95020.c      ****     fram_read_statusreg();
 512              		.loc 1 210 0
 513 0004 FFF7FEFF 		bl	fram_read_statusreg
 211:m95020.c      ****     
 212:m95020.c      ****     return status_reg.b.WEL;
 514              		.loc 1 212 0
 515 0008 034B     		ldr	r3, .L27
 516 000a 1B78     		ldrb	r3, [r3]
 517 000c 9B07     		lsls	r3, r3, #30
 518 000e DB0F     		lsrs	r3, r3, #31
 519 0010 DBB2     		uxtb	r3, r3
 213:m95020.c      **** }
 520              		.loc 1 213 0
 521 0012 1800     		movs	r0, r3
 522 0014 BD46     		mov	sp, r7
 523              		@ sp needed
 524 0016 80BD     		pop	{r7, pc}
 525              	.L28:
 526              		.align	2
ARM GAS  C:\Users\diego\AppData\Local\Temp\ccGfyfKg.s 			page 14


 527              	.L27:
 528 0018 00000000 		.word	status_reg
 529              		.cfi_endproc
 530              	.LFE8:
 531              		.size	fram_write_isenable, .-fram_write_isenable
 532              		.section	.text.fram_write_inprogress,"ax",%progbits
 533              		.align	2
 534              		.global	fram_write_inprogress
 535              		.code	16
 536              		.thumb_func
 537              		.type	fram_write_inprogress, %function
 538              	fram_write_inprogress:
 539              	.LFB9:
 214:m95020.c      **** 
 215:m95020.c      **** uint8_t fram_write_inprogress()
 216:m95020.c      **** {
 540              		.loc 1 216 0
 541              		.cfi_startproc
 542              		@ args = 0, pretend = 0, frame = 0
 543              		@ frame_needed = 1, uses_anonymous_args = 0
 544 0000 80B5     		push	{r7, lr}
 545              		.cfi_def_cfa_offset 8
 546              		.cfi_offset 7, -8
 547              		.cfi_offset 14, -4
 548 0002 00AF     		add	r7, sp, #0
 549              		.cfi_def_cfa_register 7
 217:m95020.c      ****     fram_read_statusreg();
 550              		.loc 1 217 0
 551 0004 FFF7FEFF 		bl	fram_read_statusreg
 218:m95020.c      ****     
 219:m95020.c      ****     return status_reg.b.WIP;    
 552              		.loc 1 219 0
 553 0008 034B     		ldr	r3, .L31
 554 000a 1B78     		ldrb	r3, [r3]
 555 000c DB07     		lsls	r3, r3, #31
 556 000e DB0F     		lsrs	r3, r3, #31
 557 0010 DBB2     		uxtb	r3, r3
 220:m95020.c      **** }
 558              		.loc 1 220 0
 559 0012 1800     		movs	r0, r3
 560 0014 BD46     		mov	sp, r7
 561              		@ sp needed
 562 0016 80BD     		pop	{r7, pc}
 563              	.L32:
 564              		.align	2
 565              	.L31:
 566 0018 00000000 		.word	status_reg
 567              		.cfi_endproc
 568              	.LFE9:
 569              		.size	fram_write_inprogress, .-fram_write_inprogress
 570              		.section	.text.fram_read_statusreg,"ax",%progbits
 571              		.align	2
 572              		.global	fram_read_statusreg
 573              		.code	16
 574              		.thumb_func
 575              		.type	fram_read_statusreg, %function
 576              	fram_read_statusreg:
ARM GAS  C:\Users\diego\AppData\Local\Temp\ccGfyfKg.s 			page 15


 577              	.LFB10:
 221:m95020.c      **** 
 222:m95020.c      **** uint8_t fram_read_statusreg()
 223:m95020.c      **** {
 578              		.loc 1 223 0
 579              		.cfi_startproc
 580              		@ args = 0, pretend = 0, frame = 8
 581              		@ frame_needed = 1, uses_anonymous_args = 0
 582 0000 80B5     		push	{r7, lr}
 583              		.cfi_def_cfa_offset 8
 584              		.cfi_offset 7, -8
 585              		.cfi_offset 14, -4
 586 0002 82B0     		sub	sp, sp, #8
 587              		.cfi_def_cfa_offset 16
 588 0004 00AF     		add	r7, sp, #0
 589              		.cfi_def_cfa_register 7
 224:m95020.c      ****     uint8_t buf[2];
 225:m95020.c      ****     buf[0] = RDSR;    
 590              		.loc 1 225 0
 591 0006 3B1D     		adds	r3, r7, #4
 592 0008 0522     		movs	r2, #5
 593 000a 1A70     		strb	r2, [r3]
 226:m95020.c      ****     
 227:m95020.c      ****     SPIM_SpiUartClearRxBuffer();
 594              		.loc 1 227 0
 595 000c FFF7FEFF 		bl	SPIM_SpiUartClearRxBuffer
 228:m95020.c      ****     
 229:m95020.c      ****     cs_ee_Write(0);
 596              		.loc 1 229 0
 597 0010 0020     		movs	r0, #0
 598 0012 FFF7FEFF 		bl	cs_ee_Write
 230:m95020.c      ****     
 231:m95020.c      ****     CyDelayUs(5);
 599              		.loc 1 231 0
 600 0016 0520     		movs	r0, #5
 601 0018 FFF7FEFF 		bl	CyDelayUs
 232:m95020.c      ****     
 233:m95020.c      ****     SPIM_SpiUartPutArray(buf,2);
 602              		.loc 1 233 0
 603 001c 3B1D     		adds	r3, r7, #4
 604 001e 0221     		movs	r1, #2
 605 0020 1800     		movs	r0, r3
 606 0022 FFF7FEFF 		bl	SPIM_SpiUartPutArray
 234:m95020.c      ****         
 235:m95020.c      ****     while (SPIM_SpiUartGetRxBufferSize() != 2 )
 607              		.loc 1 235 0
 608 0026 C046     		nop
 609              	.L34:
 610              		.loc 1 235 0 is_stmt 0 discriminator 1
 611 0028 FFF7FEFF 		bl	SPIM_SpiUartGetRxBufferSize
 612 002c 0300     		movs	r3, r0
 613 002e 022B     		cmp	r3, #2
 614 0030 FAD1     		bne	.L34
 236:m95020.c      ****     {
 237:m95020.c      ****     }
 238:m95020.c      **** 
 239:m95020.c      ****     SPIM_SpiUartClearTxBuffer();
ARM GAS  C:\Users\diego\AppData\Local\Temp\ccGfyfKg.s 			page 16


 615              		.loc 1 239 0 is_stmt 1
 616 0032 FFF7FEFF 		bl	SPIM_SpiUartClearTxBuffer
 240:m95020.c      ****     
 241:m95020.c      ****     buf[0] = SPIM_SpiUartReadRxData();
 617              		.loc 1 241 0
 618 0036 FFF7FEFF 		bl	SPIM_SpiUartReadRxData
 619 003a 0300     		movs	r3, r0
 620 003c DAB2     		uxtb	r2, r3
 621 003e 3B1D     		adds	r3, r7, #4
 622 0040 1A70     		strb	r2, [r3]
 242:m95020.c      ****     buf[1] = SPIM_SpiUartReadRxData();
 623              		.loc 1 242 0
 624 0042 FFF7FEFF 		bl	SPIM_SpiUartReadRxData
 625 0046 0300     		movs	r3, r0
 626 0048 DAB2     		uxtb	r2, r3
 627 004a 3B1D     		adds	r3, r7, #4
 628 004c 5A70     		strb	r2, [r3, #1]
 243:m95020.c      ****     
 244:m95020.c      ****     cs_ee_Write(1);
 629              		.loc 1 244 0
 630 004e 0120     		movs	r0, #1
 631 0050 FFF7FEFF 		bl	cs_ee_Write
 245:m95020.c      **** 
 246:m95020.c      ****     SPIM_SpiUartClearTxBuffer();
 632              		.loc 1 246 0
 633 0054 FFF7FEFF 		bl	SPIM_SpiUartClearTxBuffer
 247:m95020.c      ****     
 248:m95020.c      ****     status_reg.val = buf[1];
 634              		.loc 1 248 0
 635 0058 3B1D     		adds	r3, r7, #4
 636 005a 5A78     		ldrb	r2, [r3, #1]
 637 005c 034B     		ldr	r3, .L36
 638 005e 1A70     		strb	r2, [r3]
 249:m95020.c      ****     
 250:m95020.c      ****     return 1;
 639              		.loc 1 250 0
 640 0060 0123     		movs	r3, #1
 251:m95020.c      ****     
 252:m95020.c      **** }
 641              		.loc 1 252 0
 642 0062 1800     		movs	r0, r3
 643 0064 BD46     		mov	sp, r7
 644 0066 02B0     		add	sp, sp, #8
 645              		@ sp needed
 646 0068 80BD     		pop	{r7, pc}
 647              	.L37:
 648 006a C046     		.align	2
 649              	.L36:
 650 006c 00000000 		.word	status_reg
 651              		.cfi_endproc
 652              	.LFE10:
 653              		.size	fram_read_statusreg, .-fram_read_statusreg
 654              		.text
 655              	.Letext0:
 656              		.file 2 "e:\\cypress\\psoc creator\\4.3\\psoc creator\\import\\gnu\\arm\\5.4.1\\arm-none-eabi\\inc
 657              		.file 3 "e:\\cypress\\psoc creator\\4.3\\psoc creator\\import\\gnu\\arm\\5.4.1\\arm-none-eabi\\inc
 658              		.file 4 "m95020.h"
ARM GAS  C:\Users\diego\AppData\Local\Temp\ccGfyfKg.s 			page 17


