ARM GAS  C:\Users\diego\AppData\Local\Temp\ccr4AvRa.s 			page 1


   1              		.syntax unified
   2              		.cpu cortex-m0
   3              		.fpu softvfp
   4              		.eabi_attribute 20, 1
   5              		.eabi_attribute 21, 1
   6              		.eabi_attribute 23, 3
   7              		.eabi_attribute 24, 1
   8              		.eabi_attribute 25, 1
   9              		.eabi_attribute 26, 1
  10              		.eabi_attribute 30, 6
  11              		.eabi_attribute 34, 0
  12              		.eabi_attribute 18, 4
  13              		.thumb
  14              		.syntax unified
  15              		.file	"SPIM.c"
  16              		.text
  17              	.Ltext0:
  18              		.cfi_sections	.debug_frame
  19              		.global	SPIM_initVar
  20              		.bss
  21              		.type	SPIM_initVar, %object
  22              		.size	SPIM_initVar, 1
  23              	SPIM_initVar:
  24 0000 00       		.space	1
  25              		.global	SPIM_IntrTxMask
  26 0001 00       		.align	1
  27              		.type	SPIM_IntrTxMask, %object
  28              		.size	SPIM_IntrTxMask, 2
  29              	SPIM_IntrTxMask:
  30 0002 0000     		.space	2
  31              		.section	.text.SPIM_Init,"ax",%progbits
  32              		.align	2
  33              		.global	SPIM_Init
  34              		.code	16
  35              		.thumb_func
  36              		.type	SPIM_Init, %function
  37              	SPIM_Init:
  38              	.LFB2:
  39              		.file 1 "Generated_Source\\PSoC4\\SPIM.c"
   1:Generated_Source\PSoC4/SPIM.c **** /***************************************************************************//**
   2:Generated_Source\PSoC4/SPIM.c **** * \file SPIM.c
   3:Generated_Source\PSoC4/SPIM.c **** * \version 4.0
   4:Generated_Source\PSoC4/SPIM.c **** *
   5:Generated_Source\PSoC4/SPIM.c **** * \brief
   6:Generated_Source\PSoC4/SPIM.c **** *  This file provides the source code to the API for the SCB Component.
   7:Generated_Source\PSoC4/SPIM.c **** *
   8:Generated_Source\PSoC4/SPIM.c **** * Note:
   9:Generated_Source\PSoC4/SPIM.c **** *
  10:Generated_Source\PSoC4/SPIM.c **** *******************************************************************************
  11:Generated_Source\PSoC4/SPIM.c **** * \copyright
  12:Generated_Source\PSoC4/SPIM.c **** * Copyright 2013-2017, Cypress Semiconductor Corporation.  All rights reserved.
  13:Generated_Source\PSoC4/SPIM.c **** * You may use this file only in accordance with the license, terms, conditions,
  14:Generated_Source\PSoC4/SPIM.c **** * disclaimers, and limitations in the end user license agreement accompanying
  15:Generated_Source\PSoC4/SPIM.c **** * the software package with which this file was provided.
  16:Generated_Source\PSoC4/SPIM.c **** *******************************************************************************/
  17:Generated_Source\PSoC4/SPIM.c **** 
  18:Generated_Source\PSoC4/SPIM.c **** #include "SPIM_PVT.h"
ARM GAS  C:\Users\diego\AppData\Local\Temp\ccr4AvRa.s 			page 2


  19:Generated_Source\PSoC4/SPIM.c **** 
  20:Generated_Source\PSoC4/SPIM.c **** #if (SPIM_SCB_MODE_I2C_INC)
  21:Generated_Source\PSoC4/SPIM.c ****     #include "SPIM_I2C_PVT.h"
  22:Generated_Source\PSoC4/SPIM.c **** #endif /* (SPIM_SCB_MODE_I2C_INC) */
  23:Generated_Source\PSoC4/SPIM.c **** 
  24:Generated_Source\PSoC4/SPIM.c **** #if (SPIM_SCB_MODE_EZI2C_INC)
  25:Generated_Source\PSoC4/SPIM.c ****     #include "SPIM_EZI2C_PVT.h"
  26:Generated_Source\PSoC4/SPIM.c **** #endif /* (SPIM_SCB_MODE_EZI2C_INC) */
  27:Generated_Source\PSoC4/SPIM.c **** 
  28:Generated_Source\PSoC4/SPIM.c **** #if (SPIM_SCB_MODE_SPI_INC || SPIM_SCB_MODE_UART_INC)
  29:Generated_Source\PSoC4/SPIM.c ****     #include "SPIM_SPI_UART_PVT.h"
  30:Generated_Source\PSoC4/SPIM.c **** #endif /* (SPIM_SCB_MODE_SPI_INC || SPIM_SCB_MODE_UART_INC) */
  31:Generated_Source\PSoC4/SPIM.c **** 
  32:Generated_Source\PSoC4/SPIM.c **** 
  33:Generated_Source\PSoC4/SPIM.c **** /***************************************
  34:Generated_Source\PSoC4/SPIM.c **** *    Run Time Configuration Vars
  35:Generated_Source\PSoC4/SPIM.c **** ***************************************/
  36:Generated_Source\PSoC4/SPIM.c **** 
  37:Generated_Source\PSoC4/SPIM.c **** /* Stores internal component configuration for Unconfigured mode */
  38:Generated_Source\PSoC4/SPIM.c **** #if (SPIM_SCB_MODE_UNCONFIG_CONST_CFG)
  39:Generated_Source\PSoC4/SPIM.c ****     /* Common configuration variables */
  40:Generated_Source\PSoC4/SPIM.c ****     uint8 SPIM_scbMode = SPIM_SCB_MODE_UNCONFIG;
  41:Generated_Source\PSoC4/SPIM.c ****     uint8 SPIM_scbEnableWake;
  42:Generated_Source\PSoC4/SPIM.c ****     uint8 SPIM_scbEnableIntr;
  43:Generated_Source\PSoC4/SPIM.c **** 
  44:Generated_Source\PSoC4/SPIM.c ****     /* I2C configuration variables */
  45:Generated_Source\PSoC4/SPIM.c ****     uint8 SPIM_mode;
  46:Generated_Source\PSoC4/SPIM.c ****     uint8 SPIM_acceptAddr;
  47:Generated_Source\PSoC4/SPIM.c **** 
  48:Generated_Source\PSoC4/SPIM.c ****     /* SPI/UART configuration variables */
  49:Generated_Source\PSoC4/SPIM.c ****     volatile uint8 * SPIM_rxBuffer;
  50:Generated_Source\PSoC4/SPIM.c ****     uint8  SPIM_rxDataBits;
  51:Generated_Source\PSoC4/SPIM.c ****     uint32 SPIM_rxBufferSize;
  52:Generated_Source\PSoC4/SPIM.c **** 
  53:Generated_Source\PSoC4/SPIM.c ****     volatile uint8 * SPIM_txBuffer;
  54:Generated_Source\PSoC4/SPIM.c ****     uint8  SPIM_txDataBits;
  55:Generated_Source\PSoC4/SPIM.c ****     uint32 SPIM_txBufferSize;
  56:Generated_Source\PSoC4/SPIM.c **** 
  57:Generated_Source\PSoC4/SPIM.c ****     /* EZI2C configuration variables */
  58:Generated_Source\PSoC4/SPIM.c ****     uint8 SPIM_numberOfAddr;
  59:Generated_Source\PSoC4/SPIM.c ****     uint8 SPIM_subAddrSize;
  60:Generated_Source\PSoC4/SPIM.c **** #endif /* (SPIM_SCB_MODE_UNCONFIG_CONST_CFG) */
  61:Generated_Source\PSoC4/SPIM.c **** 
  62:Generated_Source\PSoC4/SPIM.c **** 
  63:Generated_Source\PSoC4/SPIM.c **** /***************************************
  64:Generated_Source\PSoC4/SPIM.c **** *     Common SCB Vars
  65:Generated_Source\PSoC4/SPIM.c **** ***************************************/
  66:Generated_Source\PSoC4/SPIM.c **** /**
  67:Generated_Source\PSoC4/SPIM.c **** * \addtogroup group_general
  68:Generated_Source\PSoC4/SPIM.c **** * \{
  69:Generated_Source\PSoC4/SPIM.c **** */
  70:Generated_Source\PSoC4/SPIM.c **** 
  71:Generated_Source\PSoC4/SPIM.c **** /** SPIM_initVar indicates whether the SPIM 
  72:Generated_Source\PSoC4/SPIM.c **** *  component has been initialized. The variable is initialized to 0 
  73:Generated_Source\PSoC4/SPIM.c **** *  and set to 1 the first time SCB_Start() is called. This allows 
  74:Generated_Source\PSoC4/SPIM.c **** *  the component to restart without reinitialization after the first 
  75:Generated_Source\PSoC4/SPIM.c **** *  call to the SPIM_Start() routine.
ARM GAS  C:\Users\diego\AppData\Local\Temp\ccr4AvRa.s 			page 3


  76:Generated_Source\PSoC4/SPIM.c **** *
  77:Generated_Source\PSoC4/SPIM.c **** *  If re-initialization of the component is required, then the 
  78:Generated_Source\PSoC4/SPIM.c **** *  SPIM_Init() function can be called before the 
  79:Generated_Source\PSoC4/SPIM.c **** *  SPIM_Start() or SPIM_Enable() function.
  80:Generated_Source\PSoC4/SPIM.c **** */
  81:Generated_Source\PSoC4/SPIM.c **** uint8 SPIM_initVar = 0u;
  82:Generated_Source\PSoC4/SPIM.c **** 
  83:Generated_Source\PSoC4/SPIM.c **** 
  84:Generated_Source\PSoC4/SPIM.c **** #if (! (SPIM_SCB_MODE_I2C_CONST_CFG || \
  85:Generated_Source\PSoC4/SPIM.c ****         SPIM_SCB_MODE_EZI2C_CONST_CFG))
  86:Generated_Source\PSoC4/SPIM.c ****     /** This global variable stores TX interrupt sources after 
  87:Generated_Source\PSoC4/SPIM.c ****     * SPIM_Stop() is called. Only these TX interrupt sources 
  88:Generated_Source\PSoC4/SPIM.c ****     * will be restored on a subsequent SPIM_Enable() call.
  89:Generated_Source\PSoC4/SPIM.c ****     */
  90:Generated_Source\PSoC4/SPIM.c ****     uint16 SPIM_IntrTxMask = 0u;
  91:Generated_Source\PSoC4/SPIM.c **** #endif /* (! (SPIM_SCB_MODE_I2C_CONST_CFG || \
  92:Generated_Source\PSoC4/SPIM.c ****               SPIM_SCB_MODE_EZI2C_CONST_CFG)) */
  93:Generated_Source\PSoC4/SPIM.c **** /** \} globals */
  94:Generated_Source\PSoC4/SPIM.c **** 
  95:Generated_Source\PSoC4/SPIM.c **** #if (SPIM_SCB_IRQ_INTERNAL)
  96:Generated_Source\PSoC4/SPIM.c **** #if !defined (CY_REMOVE_SPIM_CUSTOM_INTR_HANDLER)
  97:Generated_Source\PSoC4/SPIM.c ****     void (*SPIM_customIntrHandler)(void) = NULL;
  98:Generated_Source\PSoC4/SPIM.c **** #endif /* !defined (CY_REMOVE_SPIM_CUSTOM_INTR_HANDLER) */
  99:Generated_Source\PSoC4/SPIM.c **** #endif /* (SPIM_SCB_IRQ_INTERNAL) */
 100:Generated_Source\PSoC4/SPIM.c **** 
 101:Generated_Source\PSoC4/SPIM.c **** 
 102:Generated_Source\PSoC4/SPIM.c **** /***************************************
 103:Generated_Source\PSoC4/SPIM.c **** *    Private Function Prototypes
 104:Generated_Source\PSoC4/SPIM.c **** ***************************************/
 105:Generated_Source\PSoC4/SPIM.c **** 
 106:Generated_Source\PSoC4/SPIM.c **** static void SPIM_ScbEnableIntr(void);
 107:Generated_Source\PSoC4/SPIM.c **** static void SPIM_ScbModeStop(void);
 108:Generated_Source\PSoC4/SPIM.c **** static void SPIM_ScbModePostEnable(void);
 109:Generated_Source\PSoC4/SPIM.c **** 
 110:Generated_Source\PSoC4/SPIM.c **** 
 111:Generated_Source\PSoC4/SPIM.c **** /*******************************************************************************
 112:Generated_Source\PSoC4/SPIM.c **** * Function Name: SPIM_Init
 113:Generated_Source\PSoC4/SPIM.c **** ****************************************************************************//**
 114:Generated_Source\PSoC4/SPIM.c **** *
 115:Generated_Source\PSoC4/SPIM.c **** *  Initializes the SPIM component to operate in one of the selected
 116:Generated_Source\PSoC4/SPIM.c **** *  configurations: I2C, SPI, UART or EZI2C.
 117:Generated_Source\PSoC4/SPIM.c **** *  When the configuration is set to "Unconfigured SCB", this function does
 118:Generated_Source\PSoC4/SPIM.c **** *  not do any initialization. Use mode-specific initialization APIs instead:
 119:Generated_Source\PSoC4/SPIM.c **** *  SPIM_I2CInit, SPIM_SpiInit, 
 120:Generated_Source\PSoC4/SPIM.c **** *  SPIM_UartInit or SPIM_EzI2CInit.
 121:Generated_Source\PSoC4/SPIM.c **** *
 122:Generated_Source\PSoC4/SPIM.c **** *******************************************************************************/
 123:Generated_Source\PSoC4/SPIM.c **** void SPIM_Init(void)
 124:Generated_Source\PSoC4/SPIM.c **** {
  40              		.loc 1 124 0
  41              		.cfi_startproc
  42              		@ args = 0, pretend = 0, frame = 0
  43              		@ frame_needed = 1, uses_anonymous_args = 0
  44 0000 80B5     		push	{r7, lr}
  45              		.cfi_def_cfa_offset 8
  46              		.cfi_offset 7, -8
  47              		.cfi_offset 14, -4
ARM GAS  C:\Users\diego\AppData\Local\Temp\ccr4AvRa.s 			page 4


  48 0002 00AF     		add	r7, sp, #0
  49              		.cfi_def_cfa_register 7
 125:Generated_Source\PSoC4/SPIM.c **** #if (SPIM_SCB_MODE_UNCONFIG_CONST_CFG)
 126:Generated_Source\PSoC4/SPIM.c ****     if (SPIM_SCB_MODE_UNCONFIG_RUNTM_CFG)
 127:Generated_Source\PSoC4/SPIM.c ****     {
 128:Generated_Source\PSoC4/SPIM.c ****         SPIM_initVar = 0u;
 129:Generated_Source\PSoC4/SPIM.c ****     }
 130:Generated_Source\PSoC4/SPIM.c ****     else
 131:Generated_Source\PSoC4/SPIM.c ****     {
 132:Generated_Source\PSoC4/SPIM.c ****         /* Initialization was done before this function call */
 133:Generated_Source\PSoC4/SPIM.c ****     }
 134:Generated_Source\PSoC4/SPIM.c **** 
 135:Generated_Source\PSoC4/SPIM.c **** #elif (SPIM_SCB_MODE_I2C_CONST_CFG)
 136:Generated_Source\PSoC4/SPIM.c ****     SPIM_I2CInit();
 137:Generated_Source\PSoC4/SPIM.c **** 
 138:Generated_Source\PSoC4/SPIM.c **** #elif (SPIM_SCB_MODE_SPI_CONST_CFG)
 139:Generated_Source\PSoC4/SPIM.c ****     SPIM_SpiInit();
  50              		.loc 1 139 0
  51 0004 FFF7FEFF 		bl	SPIM_SpiInit
 140:Generated_Source\PSoC4/SPIM.c **** 
 141:Generated_Source\PSoC4/SPIM.c **** #elif (SPIM_SCB_MODE_UART_CONST_CFG)
 142:Generated_Source\PSoC4/SPIM.c ****     SPIM_UartInit();
 143:Generated_Source\PSoC4/SPIM.c **** 
 144:Generated_Source\PSoC4/SPIM.c **** #elif (SPIM_SCB_MODE_EZI2C_CONST_CFG)
 145:Generated_Source\PSoC4/SPIM.c ****     SPIM_EzI2CInit();
 146:Generated_Source\PSoC4/SPIM.c **** 
 147:Generated_Source\PSoC4/SPIM.c **** #endif /* (SPIM_SCB_MODE_UNCONFIG_CONST_CFG) */
 148:Generated_Source\PSoC4/SPIM.c **** }
  52              		.loc 1 148 0
  53 0008 C046     		nop
  54 000a BD46     		mov	sp, r7
  55              		@ sp needed
  56 000c 80BD     		pop	{r7, pc}
  57              		.cfi_endproc
  58              	.LFE2:
  59              		.size	SPIM_Init, .-SPIM_Init
  60 000e C046     		.section	.text.SPIM_Enable,"ax",%progbits
  61              		.align	2
  62              		.global	SPIM_Enable
  63              		.code	16
  64              		.thumb_func
  65              		.type	SPIM_Enable, %function
  66              	SPIM_Enable:
  67              	.LFB3:
 149:Generated_Source\PSoC4/SPIM.c **** 
 150:Generated_Source\PSoC4/SPIM.c **** 
 151:Generated_Source\PSoC4/SPIM.c **** /*******************************************************************************
 152:Generated_Source\PSoC4/SPIM.c **** * Function Name: SPIM_Enable
 153:Generated_Source\PSoC4/SPIM.c **** ****************************************************************************//**
 154:Generated_Source\PSoC4/SPIM.c **** *
 155:Generated_Source\PSoC4/SPIM.c **** *  Enables SPIM component operation: activates the hardware and 
 156:Generated_Source\PSoC4/SPIM.c **** *  internal interrupt. It also restores TX interrupt sources disabled after the 
 157:Generated_Source\PSoC4/SPIM.c **** *  SPIM_Stop() function was called (note that level-triggered TX 
 158:Generated_Source\PSoC4/SPIM.c **** *  interrupt sources remain disabled to not cause code lock-up).
 159:Generated_Source\PSoC4/SPIM.c **** *  For I2C and EZI2C modes the interrupt is internal and mandatory for 
 160:Generated_Source\PSoC4/SPIM.c **** *  operation. For SPI and UART modes the interrupt can be configured as none, 
 161:Generated_Source\PSoC4/SPIM.c **** *  internal or external.
ARM GAS  C:\Users\diego\AppData\Local\Temp\ccr4AvRa.s 			page 5


 162:Generated_Source\PSoC4/SPIM.c **** *  The SPIM configuration should be not changed when the component
 163:Generated_Source\PSoC4/SPIM.c **** *  is enabled. Any configuration changes should be made after disabling the 
 164:Generated_Source\PSoC4/SPIM.c **** *  component.
 165:Generated_Source\PSoC4/SPIM.c **** *  When configuration is set to “Unconfigured SPIM”, the component 
 166:Generated_Source\PSoC4/SPIM.c **** *  must first be initialized to operate in one of the following configurations: 
 167:Generated_Source\PSoC4/SPIM.c **** *  I2C, SPI, UART or EZ I2C, using the mode-specific initialization API. 
 168:Generated_Source\PSoC4/SPIM.c **** *  Otherwise this function does not enable the component.
 169:Generated_Source\PSoC4/SPIM.c **** *
 170:Generated_Source\PSoC4/SPIM.c **** *******************************************************************************/
 171:Generated_Source\PSoC4/SPIM.c **** void SPIM_Enable(void)
 172:Generated_Source\PSoC4/SPIM.c **** {
  68              		.loc 1 172 0
  69              		.cfi_startproc
  70              		@ args = 0, pretend = 0, frame = 0
  71              		@ frame_needed = 1, uses_anonymous_args = 0
  72 0000 80B5     		push	{r7, lr}
  73              		.cfi_def_cfa_offset 8
  74              		.cfi_offset 7, -8
  75              		.cfi_offset 14, -4
  76 0002 00AF     		add	r7, sp, #0
  77              		.cfi_def_cfa_register 7
 173:Generated_Source\PSoC4/SPIM.c **** #if (SPIM_SCB_MODE_UNCONFIG_CONST_CFG)
 174:Generated_Source\PSoC4/SPIM.c ****     /* Enable SCB block, only if it is already configured */
 175:Generated_Source\PSoC4/SPIM.c ****     if (!SPIM_SCB_MODE_UNCONFIG_RUNTM_CFG)
 176:Generated_Source\PSoC4/SPIM.c ****     {
 177:Generated_Source\PSoC4/SPIM.c ****         SPIM_CTRL_REG |= SPIM_CTRL_ENABLED;
 178:Generated_Source\PSoC4/SPIM.c **** 
 179:Generated_Source\PSoC4/SPIM.c ****         SPIM_ScbEnableIntr();
 180:Generated_Source\PSoC4/SPIM.c **** 
 181:Generated_Source\PSoC4/SPIM.c ****         /* Call PostEnable function specific to current operation mode */
 182:Generated_Source\PSoC4/SPIM.c ****         SPIM_ScbModePostEnable();
 183:Generated_Source\PSoC4/SPIM.c ****     }
 184:Generated_Source\PSoC4/SPIM.c **** #else
 185:Generated_Source\PSoC4/SPIM.c ****     SPIM_CTRL_REG |= SPIM_CTRL_ENABLED;
  78              		.loc 1 185 0
  79 0004 064B     		ldr	r3, .L3
  80 0006 064A     		ldr	r2, .L3
  81 0008 1268     		ldr	r2, [r2]
  82 000a 8021     		movs	r1, #128
  83 000c 0906     		lsls	r1, r1, #24
  84 000e 0A43     		orrs	r2, r1
  85 0010 1A60     		str	r2, [r3]
 186:Generated_Source\PSoC4/SPIM.c **** 
 187:Generated_Source\PSoC4/SPIM.c ****     SPIM_ScbEnableIntr();
  86              		.loc 1 187 0
  87 0012 FFF7FEFF 		bl	SPIM_ScbEnableIntr
 188:Generated_Source\PSoC4/SPIM.c **** 
 189:Generated_Source\PSoC4/SPIM.c ****     /* Call PostEnable function specific to current operation mode */
 190:Generated_Source\PSoC4/SPIM.c ****     SPIM_ScbModePostEnable();
  88              		.loc 1 190 0
  89 0016 FFF7FEFF 		bl	SPIM_ScbModePostEnable
 191:Generated_Source\PSoC4/SPIM.c **** #endif /* (SPIM_SCB_MODE_UNCONFIG_CONST_CFG) */
 192:Generated_Source\PSoC4/SPIM.c **** }
  90              		.loc 1 192 0
  91 001a C046     		nop
  92 001c BD46     		mov	sp, r7
  93              		@ sp needed
ARM GAS  C:\Users\diego\AppData\Local\Temp\ccr4AvRa.s 			page 6


  94 001e 80BD     		pop	{r7, pc}
  95              	.L4:
  96              		.align	2
  97              	.L3:
  98 0020 00002440 		.word	1076101120
  99              		.cfi_endproc
 100              	.LFE3:
 101              		.size	SPIM_Enable, .-SPIM_Enable
 102              		.section	.text.SPIM_Start,"ax",%progbits
 103              		.align	2
 104              		.global	SPIM_Start
 105              		.code	16
 106              		.thumb_func
 107              		.type	SPIM_Start, %function
 108              	SPIM_Start:
 109              	.LFB4:
 193:Generated_Source\PSoC4/SPIM.c **** 
 194:Generated_Source\PSoC4/SPIM.c **** 
 195:Generated_Source\PSoC4/SPIM.c **** /*******************************************************************************
 196:Generated_Source\PSoC4/SPIM.c **** * Function Name: SPIM_Start
 197:Generated_Source\PSoC4/SPIM.c **** ****************************************************************************//**
 198:Generated_Source\PSoC4/SPIM.c **** *
 199:Generated_Source\PSoC4/SPIM.c **** *  Invokes SPIM_Init() and SPIM_Enable().
 200:Generated_Source\PSoC4/SPIM.c **** *  After this function call, the component is enabled and ready for operation.
 201:Generated_Source\PSoC4/SPIM.c **** *  When configuration is set to "Unconfigured SCB", the component must first be
 202:Generated_Source\PSoC4/SPIM.c **** *  initialized to operate in one of the following configurations: I2C, SPI, UART
 203:Generated_Source\PSoC4/SPIM.c **** *  or EZI2C. Otherwise this function does not enable the component.
 204:Generated_Source\PSoC4/SPIM.c **** *
 205:Generated_Source\PSoC4/SPIM.c **** * \globalvars
 206:Generated_Source\PSoC4/SPIM.c **** *  SPIM_initVar - used to check initial configuration, modified
 207:Generated_Source\PSoC4/SPIM.c **** *  on first function call.
 208:Generated_Source\PSoC4/SPIM.c **** *
 209:Generated_Source\PSoC4/SPIM.c **** *******************************************************************************/
 210:Generated_Source\PSoC4/SPIM.c **** void SPIM_Start(void)
 211:Generated_Source\PSoC4/SPIM.c **** {
 110              		.loc 1 211 0
 111              		.cfi_startproc
 112              		@ args = 0, pretend = 0, frame = 0
 113              		@ frame_needed = 1, uses_anonymous_args = 0
 114 0000 80B5     		push	{r7, lr}
 115              		.cfi_def_cfa_offset 8
 116              		.cfi_offset 7, -8
 117              		.cfi_offset 14, -4
 118 0002 00AF     		add	r7, sp, #0
 119              		.cfi_def_cfa_register 7
 212:Generated_Source\PSoC4/SPIM.c ****     if (0u == SPIM_initVar)
 120              		.loc 1 212 0
 121 0004 064B     		ldr	r3, .L7
 122 0006 1B78     		ldrb	r3, [r3]
 123 0008 002B     		cmp	r3, #0
 124 000a 04D1     		bne	.L6
 213:Generated_Source\PSoC4/SPIM.c ****     {
 214:Generated_Source\PSoC4/SPIM.c ****         SPIM_Init();
 125              		.loc 1 214 0
 126 000c FFF7FEFF 		bl	SPIM_Init
 215:Generated_Source\PSoC4/SPIM.c ****         SPIM_initVar = 1u; /* Component was initialized */
 127              		.loc 1 215 0
ARM GAS  C:\Users\diego\AppData\Local\Temp\ccr4AvRa.s 			page 7


 128 0010 034B     		ldr	r3, .L7
 129 0012 0122     		movs	r2, #1
 130 0014 1A70     		strb	r2, [r3]
 131              	.L6:
 216:Generated_Source\PSoC4/SPIM.c ****     }
 217:Generated_Source\PSoC4/SPIM.c **** 
 218:Generated_Source\PSoC4/SPIM.c ****     SPIM_Enable();
 132              		.loc 1 218 0
 133 0016 FFF7FEFF 		bl	SPIM_Enable
 219:Generated_Source\PSoC4/SPIM.c **** }
 134              		.loc 1 219 0
 135 001a C046     		nop
 136 001c BD46     		mov	sp, r7
 137              		@ sp needed
 138 001e 80BD     		pop	{r7, pc}
 139              	.L8:
 140              		.align	2
 141              	.L7:
 142 0020 00000000 		.word	SPIM_initVar
 143              		.cfi_endproc
 144              	.LFE4:
 145              		.size	SPIM_Start, .-SPIM_Start
 146              		.section	.text.SPIM_Stop,"ax",%progbits
 147              		.align	2
 148              		.global	SPIM_Stop
 149              		.code	16
 150              		.thumb_func
 151              		.type	SPIM_Stop, %function
 152              	SPIM_Stop:
 153              	.LFB5:
 220:Generated_Source\PSoC4/SPIM.c **** 
 221:Generated_Source\PSoC4/SPIM.c **** 
 222:Generated_Source\PSoC4/SPIM.c **** /*******************************************************************************
 223:Generated_Source\PSoC4/SPIM.c **** * Function Name: SPIM_Stop
 224:Generated_Source\PSoC4/SPIM.c **** ****************************************************************************//**
 225:Generated_Source\PSoC4/SPIM.c **** *
 226:Generated_Source\PSoC4/SPIM.c **** *  Disables the SPIM component: disable the hardware and internal 
 227:Generated_Source\PSoC4/SPIM.c **** *  interrupt. It also disables all TX interrupt sources so as not to cause an 
 228:Generated_Source\PSoC4/SPIM.c **** *  unexpected interrupt trigger because after the component is enabled, the 
 229:Generated_Source\PSoC4/SPIM.c **** *  TX FIFO is empty.
 230:Generated_Source\PSoC4/SPIM.c **** *  Refer to the function SPIM_Enable() for the interrupt 
 231:Generated_Source\PSoC4/SPIM.c **** *  configuration details.
 232:Generated_Source\PSoC4/SPIM.c **** *  This function disables the SCB component without checking to see if 
 233:Generated_Source\PSoC4/SPIM.c **** *  communication is in progress. Before calling this function it may be 
 234:Generated_Source\PSoC4/SPIM.c **** *  necessary to check the status of communication to make sure communication 
 235:Generated_Source\PSoC4/SPIM.c **** *  is complete. If this is not done then communication could be stopped mid 
 236:Generated_Source\PSoC4/SPIM.c **** *  byte and corrupted data could result.
 237:Generated_Source\PSoC4/SPIM.c **** *
 238:Generated_Source\PSoC4/SPIM.c **** *******************************************************************************/
 239:Generated_Source\PSoC4/SPIM.c **** void SPIM_Stop(void)
 240:Generated_Source\PSoC4/SPIM.c **** {
 154              		.loc 1 240 0
 155              		.cfi_startproc
 156              		@ args = 0, pretend = 0, frame = 0
 157              		@ frame_needed = 1, uses_anonymous_args = 0
 158 0000 80B5     		push	{r7, lr}
 159              		.cfi_def_cfa_offset 8
ARM GAS  C:\Users\diego\AppData\Local\Temp\ccr4AvRa.s 			page 8


 160              		.cfi_offset 7, -8
 161              		.cfi_offset 14, -4
 162 0002 00AF     		add	r7, sp, #0
 163              		.cfi_def_cfa_register 7
 241:Generated_Source\PSoC4/SPIM.c **** #if (SPIM_SCB_IRQ_INTERNAL)
 242:Generated_Source\PSoC4/SPIM.c ****     SPIM_DisableInt();
 243:Generated_Source\PSoC4/SPIM.c **** #endif /* (SPIM_SCB_IRQ_INTERNAL) */
 244:Generated_Source\PSoC4/SPIM.c **** 
 245:Generated_Source\PSoC4/SPIM.c ****     /* Call Stop function specific to current operation mode */
 246:Generated_Source\PSoC4/SPIM.c ****     SPIM_ScbModeStop();
 164              		.loc 1 246 0
 165 0004 FFF7FEFF 		bl	SPIM_ScbModeStop
 247:Generated_Source\PSoC4/SPIM.c **** 
 248:Generated_Source\PSoC4/SPIM.c ****     /* Disable SCB IP */
 249:Generated_Source\PSoC4/SPIM.c ****     SPIM_CTRL_REG &= (uint32) ~SPIM_CTRL_ENABLED;
 166              		.loc 1 249 0
 167 0008 054B     		ldr	r3, .L10
 168 000a 054A     		ldr	r2, .L10
 169 000c 1268     		ldr	r2, [r2]
 170 000e 5200     		lsls	r2, r2, #1
 171 0010 5208     		lsrs	r2, r2, #1
 172 0012 1A60     		str	r2, [r3]
 250:Generated_Source\PSoC4/SPIM.c **** 
 251:Generated_Source\PSoC4/SPIM.c ****     /* Disable all TX interrupt sources so as not to cause an unexpected
 252:Generated_Source\PSoC4/SPIM.c ****     * interrupt trigger after the component will be enabled because the 
 253:Generated_Source\PSoC4/SPIM.c ****     * TX FIFO is empty.
 254:Generated_Source\PSoC4/SPIM.c ****     * For SCB IP v0, it is critical as it does not mask-out interrupt
 255:Generated_Source\PSoC4/SPIM.c ****     * sources when it is disabled. This can cause a code lock-up in the
 256:Generated_Source\PSoC4/SPIM.c ****     * interrupt handler because TX FIFO cannot be loaded after the block
 257:Generated_Source\PSoC4/SPIM.c ****     * is disabled.
 258:Generated_Source\PSoC4/SPIM.c ****     */
 259:Generated_Source\PSoC4/SPIM.c ****     SPIM_SetTxInterruptMode(SPIM_NO_INTR_SOURCES);
 173              		.loc 1 259 0
 174 0014 034B     		ldr	r3, .L10+4
 175 0016 0022     		movs	r2, #0
 176 0018 1A60     		str	r2, [r3]
 260:Generated_Source\PSoC4/SPIM.c **** 
 261:Generated_Source\PSoC4/SPIM.c **** #if (SPIM_SCB_IRQ_INTERNAL)
 262:Generated_Source\PSoC4/SPIM.c ****     SPIM_ClearPendingInt();
 263:Generated_Source\PSoC4/SPIM.c **** #endif /* (SPIM_SCB_IRQ_INTERNAL) */
 264:Generated_Source\PSoC4/SPIM.c **** }
 177              		.loc 1 264 0
 178 001a C046     		nop
 179 001c BD46     		mov	sp, r7
 180              		@ sp needed
 181 001e 80BD     		pop	{r7, pc}
 182              	.L11:
 183              		.align	2
 184              	.L10:
 185 0020 00002440 		.word	1076101120
 186 0024 880F2440 		.word	1076105096
 187              		.cfi_endproc
 188              	.LFE5:
 189              		.size	SPIM_Stop, .-SPIM_Stop
 190              		.section	.text.SPIM_SetRxFifoLevel,"ax",%progbits
 191              		.align	2
 192              		.global	SPIM_SetRxFifoLevel
ARM GAS  C:\Users\diego\AppData\Local\Temp\ccr4AvRa.s 			page 9


 193              		.code	16
 194              		.thumb_func
 195              		.type	SPIM_SetRxFifoLevel, %function
 196              	SPIM_SetRxFifoLevel:
 197              	.LFB6:
 265:Generated_Source\PSoC4/SPIM.c **** 
 266:Generated_Source\PSoC4/SPIM.c **** 
 267:Generated_Source\PSoC4/SPIM.c **** /*******************************************************************************
 268:Generated_Source\PSoC4/SPIM.c **** * Function Name: SPIM_SetRxFifoLevel
 269:Generated_Source\PSoC4/SPIM.c **** ****************************************************************************//**
 270:Generated_Source\PSoC4/SPIM.c **** *
 271:Generated_Source\PSoC4/SPIM.c **** *  Sets level in the RX FIFO to generate a RX level interrupt.
 272:Generated_Source\PSoC4/SPIM.c **** *  When the RX FIFO has more entries than the RX FIFO level an RX level
 273:Generated_Source\PSoC4/SPIM.c **** *  interrupt request is generated.
 274:Generated_Source\PSoC4/SPIM.c **** *
 275:Generated_Source\PSoC4/SPIM.c **** *  \param level: Level in the RX FIFO to generate RX level interrupt.
 276:Generated_Source\PSoC4/SPIM.c **** *   The range of valid level values is between 0 and RX FIFO depth - 1.
 277:Generated_Source\PSoC4/SPIM.c **** *
 278:Generated_Source\PSoC4/SPIM.c **** *******************************************************************************/
 279:Generated_Source\PSoC4/SPIM.c **** void SPIM_SetRxFifoLevel(uint32 level)
 280:Generated_Source\PSoC4/SPIM.c **** {
 198              		.loc 1 280 0
 199              		.cfi_startproc
 200              		@ args = 0, pretend = 0, frame = 16
 201              		@ frame_needed = 1, uses_anonymous_args = 0
 202 0000 80B5     		push	{r7, lr}
 203              		.cfi_def_cfa_offset 8
 204              		.cfi_offset 7, -8
 205              		.cfi_offset 14, -4
 206 0002 84B0     		sub	sp, sp, #16
 207              		.cfi_def_cfa_offset 24
 208 0004 00AF     		add	r7, sp, #0
 209              		.cfi_def_cfa_register 7
 210 0006 7860     		str	r0, [r7, #4]
 281:Generated_Source\PSoC4/SPIM.c ****     uint32 rxFifoCtrl;
 282:Generated_Source\PSoC4/SPIM.c **** 
 283:Generated_Source\PSoC4/SPIM.c ****     rxFifoCtrl = SPIM_RX_FIFO_CTRL_REG;
 211              		.loc 1 283 0
 212 0008 094B     		ldr	r3, .L13
 213 000a 1B68     		ldr	r3, [r3]
 214 000c FB60     		str	r3, [r7, #12]
 284:Generated_Source\PSoC4/SPIM.c **** 
 285:Generated_Source\PSoC4/SPIM.c ****     rxFifoCtrl &= ((uint32) ~SPIM_RX_FIFO_CTRL_TRIGGER_LEVEL_MASK); /* Clear level mask bits */
 215              		.loc 1 285 0
 216 000e FB68     		ldr	r3, [r7, #12]
 217 0010 0F22     		movs	r2, #15
 218 0012 9343     		bics	r3, r2
 219 0014 FB60     		str	r3, [r7, #12]
 286:Generated_Source\PSoC4/SPIM.c ****     rxFifoCtrl |= ((uint32) (SPIM_RX_FIFO_CTRL_TRIGGER_LEVEL_MASK & level));
 220              		.loc 1 286 0
 221 0016 7B68     		ldr	r3, [r7, #4]
 222 0018 0F22     		movs	r2, #15
 223 001a 1340     		ands	r3, r2
 224 001c FA68     		ldr	r2, [r7, #12]
 225 001e 1343     		orrs	r3, r2
 226 0020 FB60     		str	r3, [r7, #12]
 287:Generated_Source\PSoC4/SPIM.c **** 
ARM GAS  C:\Users\diego\AppData\Local\Temp\ccr4AvRa.s 			page 10


 288:Generated_Source\PSoC4/SPIM.c ****     SPIM_RX_FIFO_CTRL_REG = rxFifoCtrl;
 227              		.loc 1 288 0
 228 0022 034B     		ldr	r3, .L13
 229 0024 FA68     		ldr	r2, [r7, #12]
 230 0026 1A60     		str	r2, [r3]
 289:Generated_Source\PSoC4/SPIM.c **** }
 231              		.loc 1 289 0
 232 0028 C046     		nop
 233 002a BD46     		mov	sp, r7
 234 002c 04B0     		add	sp, sp, #16
 235              		@ sp needed
 236 002e 80BD     		pop	{r7, pc}
 237              	.L14:
 238              		.align	2
 239              	.L13:
 240 0030 04032440 		.word	1076101892
 241              		.cfi_endproc
 242              	.LFE6:
 243              		.size	SPIM_SetRxFifoLevel, .-SPIM_SetRxFifoLevel
 244              		.section	.text.SPIM_SetTxFifoLevel,"ax",%progbits
 245              		.align	2
 246              		.global	SPIM_SetTxFifoLevel
 247              		.code	16
 248              		.thumb_func
 249              		.type	SPIM_SetTxFifoLevel, %function
 250              	SPIM_SetTxFifoLevel:
 251              	.LFB7:
 290:Generated_Source\PSoC4/SPIM.c **** 
 291:Generated_Source\PSoC4/SPIM.c **** 
 292:Generated_Source\PSoC4/SPIM.c **** /*******************************************************************************
 293:Generated_Source\PSoC4/SPIM.c **** * Function Name: SPIM_SetTxFifoLevel
 294:Generated_Source\PSoC4/SPIM.c **** ****************************************************************************//**
 295:Generated_Source\PSoC4/SPIM.c **** *
 296:Generated_Source\PSoC4/SPIM.c **** *  Sets level in the TX FIFO to generate a TX level interrupt.
 297:Generated_Source\PSoC4/SPIM.c **** *  When the TX FIFO has less entries than the TX FIFO level an TX level
 298:Generated_Source\PSoC4/SPIM.c **** *  interrupt request is generated.
 299:Generated_Source\PSoC4/SPIM.c **** *
 300:Generated_Source\PSoC4/SPIM.c **** *  \param level: Level in the TX FIFO to generate TX level interrupt.
 301:Generated_Source\PSoC4/SPIM.c **** *   The range of valid level values is between 0 and TX FIFO depth - 1.
 302:Generated_Source\PSoC4/SPIM.c **** *
 303:Generated_Source\PSoC4/SPIM.c **** *******************************************************************************/
 304:Generated_Source\PSoC4/SPIM.c **** void SPIM_SetTxFifoLevel(uint32 level)
 305:Generated_Source\PSoC4/SPIM.c **** {
 252              		.loc 1 305 0
 253              		.cfi_startproc
 254              		@ args = 0, pretend = 0, frame = 16
 255              		@ frame_needed = 1, uses_anonymous_args = 0
 256 0000 80B5     		push	{r7, lr}
 257              		.cfi_def_cfa_offset 8
 258              		.cfi_offset 7, -8
 259              		.cfi_offset 14, -4
 260 0002 84B0     		sub	sp, sp, #16
 261              		.cfi_def_cfa_offset 24
 262 0004 00AF     		add	r7, sp, #0
 263              		.cfi_def_cfa_register 7
 264 0006 7860     		str	r0, [r7, #4]
 306:Generated_Source\PSoC4/SPIM.c ****     uint32 txFifoCtrl;
ARM GAS  C:\Users\diego\AppData\Local\Temp\ccr4AvRa.s 			page 11


 307:Generated_Source\PSoC4/SPIM.c **** 
 308:Generated_Source\PSoC4/SPIM.c ****     txFifoCtrl = SPIM_TX_FIFO_CTRL_REG;
 265              		.loc 1 308 0
 266 0008 094B     		ldr	r3, .L16
 267 000a 1B68     		ldr	r3, [r3]
 268 000c FB60     		str	r3, [r7, #12]
 309:Generated_Source\PSoC4/SPIM.c **** 
 310:Generated_Source\PSoC4/SPIM.c ****     txFifoCtrl &= ((uint32) ~SPIM_TX_FIFO_CTRL_TRIGGER_LEVEL_MASK); /* Clear level mask bits */
 269              		.loc 1 310 0
 270 000e FB68     		ldr	r3, [r7, #12]
 271 0010 0F22     		movs	r2, #15
 272 0012 9343     		bics	r3, r2
 273 0014 FB60     		str	r3, [r7, #12]
 311:Generated_Source\PSoC4/SPIM.c ****     txFifoCtrl |= ((uint32) (SPIM_TX_FIFO_CTRL_TRIGGER_LEVEL_MASK & level));
 274              		.loc 1 311 0
 275 0016 7B68     		ldr	r3, [r7, #4]
 276 0018 0F22     		movs	r2, #15
 277 001a 1340     		ands	r3, r2
 278 001c FA68     		ldr	r2, [r7, #12]
 279 001e 1343     		orrs	r3, r2
 280 0020 FB60     		str	r3, [r7, #12]
 312:Generated_Source\PSoC4/SPIM.c **** 
 313:Generated_Source\PSoC4/SPIM.c ****     SPIM_TX_FIFO_CTRL_REG = txFifoCtrl;
 281              		.loc 1 313 0
 282 0022 034B     		ldr	r3, .L16
 283 0024 FA68     		ldr	r2, [r7, #12]
 284 0026 1A60     		str	r2, [r3]
 314:Generated_Source\PSoC4/SPIM.c **** }
 285              		.loc 1 314 0
 286 0028 C046     		nop
 287 002a BD46     		mov	sp, r7
 288 002c 04B0     		add	sp, sp, #16
 289              		@ sp needed
 290 002e 80BD     		pop	{r7, pc}
 291              	.L17:
 292              		.align	2
 293              	.L16:
 294 0030 04022440 		.word	1076101636
 295              		.cfi_endproc
 296              	.LFE7:
 297              		.size	SPIM_SetTxFifoLevel, .-SPIM_SetTxFifoLevel
 298              		.section	.text.SPIM_ScbEnableIntr,"ax",%progbits
 299              		.align	2
 300              		.code	16
 301              		.thumb_func
 302              		.type	SPIM_ScbEnableIntr, %function
 303              	SPIM_ScbEnableIntr:
 304              	.LFB8:
 315:Generated_Source\PSoC4/SPIM.c **** 
 316:Generated_Source\PSoC4/SPIM.c **** 
 317:Generated_Source\PSoC4/SPIM.c **** #if (SPIM_SCB_IRQ_INTERNAL)
 318:Generated_Source\PSoC4/SPIM.c ****     /*******************************************************************************
 319:Generated_Source\PSoC4/SPIM.c ****     * Function Name: SPIM_SetCustomInterruptHandler
 320:Generated_Source\PSoC4/SPIM.c ****     ****************************************************************************//**
 321:Generated_Source\PSoC4/SPIM.c ****     *
 322:Generated_Source\PSoC4/SPIM.c ****     *  Registers a function to be called by the internal interrupt handler.
 323:Generated_Source\PSoC4/SPIM.c ****     *  First the function that is registered is called, then the internal interrupt
ARM GAS  C:\Users\diego\AppData\Local\Temp\ccr4AvRa.s 			page 12


 324:Generated_Source\PSoC4/SPIM.c ****     *  handler performs any operation such as software buffer management functions
 325:Generated_Source\PSoC4/SPIM.c ****     *  before the interrupt returns.  It is the user's responsibility not to break
 326:Generated_Source\PSoC4/SPIM.c ****     *  the software buffer operations. Only one custom handler is supported, which
 327:Generated_Source\PSoC4/SPIM.c ****     *  is the function provided by the most recent call.
 328:Generated_Source\PSoC4/SPIM.c ****     *  At the initialization time no custom handler is registered.
 329:Generated_Source\PSoC4/SPIM.c ****     *
 330:Generated_Source\PSoC4/SPIM.c ****     *  \param func: Pointer to the function to register.
 331:Generated_Source\PSoC4/SPIM.c ****     *        The value NULL indicates to remove the current custom interrupt
 332:Generated_Source\PSoC4/SPIM.c ****     *        handler.
 333:Generated_Source\PSoC4/SPIM.c ****     *
 334:Generated_Source\PSoC4/SPIM.c ****     *******************************************************************************/
 335:Generated_Source\PSoC4/SPIM.c ****     void SPIM_SetCustomInterruptHandler(void (*func)(void))
 336:Generated_Source\PSoC4/SPIM.c ****     {
 337:Generated_Source\PSoC4/SPIM.c ****     #if !defined (CY_REMOVE_SPIM_CUSTOM_INTR_HANDLER)
 338:Generated_Source\PSoC4/SPIM.c ****         SPIM_customIntrHandler = func; /* Register interrupt handler */
 339:Generated_Source\PSoC4/SPIM.c ****     #else
 340:Generated_Source\PSoC4/SPIM.c ****         if (NULL != func)
 341:Generated_Source\PSoC4/SPIM.c ****         {
 342:Generated_Source\PSoC4/SPIM.c ****             /* Suppress compiler warning */
 343:Generated_Source\PSoC4/SPIM.c ****         }
 344:Generated_Source\PSoC4/SPIM.c ****     #endif /* !defined (CY_REMOVE_SPIM_CUSTOM_INTR_HANDLER) */
 345:Generated_Source\PSoC4/SPIM.c ****     }
 346:Generated_Source\PSoC4/SPIM.c **** #endif /* (SPIM_SCB_IRQ_INTERNAL) */
 347:Generated_Source\PSoC4/SPIM.c **** 
 348:Generated_Source\PSoC4/SPIM.c **** 
 349:Generated_Source\PSoC4/SPIM.c **** /*******************************************************************************
 350:Generated_Source\PSoC4/SPIM.c **** * Function Name: SPIM_ScbModeEnableIntr
 351:Generated_Source\PSoC4/SPIM.c **** ****************************************************************************//**
 352:Generated_Source\PSoC4/SPIM.c **** *
 353:Generated_Source\PSoC4/SPIM.c **** *  Enables an interrupt for a specific mode.
 354:Generated_Source\PSoC4/SPIM.c **** *
 355:Generated_Source\PSoC4/SPIM.c **** *******************************************************************************/
 356:Generated_Source\PSoC4/SPIM.c **** static void SPIM_ScbEnableIntr(void)
 357:Generated_Source\PSoC4/SPIM.c **** {
 305              		.loc 1 357 0
 306              		.cfi_startproc
 307              		@ args = 0, pretend = 0, frame = 0
 308              		@ frame_needed = 1, uses_anonymous_args = 0
 309 0000 80B5     		push	{r7, lr}
 310              		.cfi_def_cfa_offset 8
 311              		.cfi_offset 7, -8
 312              		.cfi_offset 14, -4
 313 0002 00AF     		add	r7, sp, #0
 314              		.cfi_def_cfa_register 7
 358:Generated_Source\PSoC4/SPIM.c **** #if (SPIM_SCB_IRQ_INTERNAL)
 359:Generated_Source\PSoC4/SPIM.c ****     /* Enable interrupt in NVIC */
 360:Generated_Source\PSoC4/SPIM.c ****     #if (SPIM_SCB_MODE_UNCONFIG_CONST_CFG)
 361:Generated_Source\PSoC4/SPIM.c ****         if (0u != SPIM_scbEnableIntr)
 362:Generated_Source\PSoC4/SPIM.c ****         {
 363:Generated_Source\PSoC4/SPIM.c ****             SPIM_EnableInt();
 364:Generated_Source\PSoC4/SPIM.c ****         }
 365:Generated_Source\PSoC4/SPIM.c **** 
 366:Generated_Source\PSoC4/SPIM.c ****     #else
 367:Generated_Source\PSoC4/SPIM.c ****         SPIM_EnableInt();
 368:Generated_Source\PSoC4/SPIM.c **** 
 369:Generated_Source\PSoC4/SPIM.c ****     #endif /* (SPIM_SCB_MODE_UNCONFIG_CONST_CFG) */
 370:Generated_Source\PSoC4/SPIM.c **** #endif /* (SPIM_SCB_IRQ_INTERNAL) */
ARM GAS  C:\Users\diego\AppData\Local\Temp\ccr4AvRa.s 			page 13


 371:Generated_Source\PSoC4/SPIM.c **** }
 315              		.loc 1 371 0
 316 0004 C046     		nop
 317 0006 BD46     		mov	sp, r7
 318              		@ sp needed
 319 0008 80BD     		pop	{r7, pc}
 320              		.cfi_endproc
 321              	.LFE8:
 322              		.size	SPIM_ScbEnableIntr, .-SPIM_ScbEnableIntr
 323 000a C046     		.section	.text.SPIM_ScbModePostEnable,"ax",%progbits
 324              		.align	2
 325              		.code	16
 326              		.thumb_func
 327              		.type	SPIM_ScbModePostEnable, %function
 328              	SPIM_ScbModePostEnable:
 329              	.LFB9:
 372:Generated_Source\PSoC4/SPIM.c **** 
 373:Generated_Source\PSoC4/SPIM.c **** 
 374:Generated_Source\PSoC4/SPIM.c **** /*******************************************************************************
 375:Generated_Source\PSoC4/SPIM.c **** * Function Name: SPIM_ScbModePostEnable
 376:Generated_Source\PSoC4/SPIM.c **** ****************************************************************************//**
 377:Generated_Source\PSoC4/SPIM.c **** *
 378:Generated_Source\PSoC4/SPIM.c **** *  Calls the PostEnable function for a specific operation mode.
 379:Generated_Source\PSoC4/SPIM.c **** *
 380:Generated_Source\PSoC4/SPIM.c **** *******************************************************************************/
 381:Generated_Source\PSoC4/SPIM.c **** static void SPIM_ScbModePostEnable(void)
 382:Generated_Source\PSoC4/SPIM.c **** {
 330              		.loc 1 382 0
 331              		.cfi_startproc
 332              		@ args = 0, pretend = 0, frame = 0
 333              		@ frame_needed = 1, uses_anonymous_args = 0
 334 0000 80B5     		push	{r7, lr}
 335              		.cfi_def_cfa_offset 8
 336              		.cfi_offset 7, -8
 337              		.cfi_offset 14, -4
 338 0002 00AF     		add	r7, sp, #0
 339              		.cfi_def_cfa_register 7
 383:Generated_Source\PSoC4/SPIM.c **** #if (SPIM_SCB_MODE_UNCONFIG_CONST_CFG)
 384:Generated_Source\PSoC4/SPIM.c **** #if (!SPIM_CY_SCBIP_V1)
 385:Generated_Source\PSoC4/SPIM.c ****     if (SPIM_SCB_MODE_SPI_RUNTM_CFG)
 386:Generated_Source\PSoC4/SPIM.c ****     {
 387:Generated_Source\PSoC4/SPIM.c ****         SPIM_SpiPostEnable();
 388:Generated_Source\PSoC4/SPIM.c ****     }
 389:Generated_Source\PSoC4/SPIM.c ****     else if (SPIM_SCB_MODE_UART_RUNTM_CFG)
 390:Generated_Source\PSoC4/SPIM.c ****     {
 391:Generated_Source\PSoC4/SPIM.c ****         SPIM_UartPostEnable();
 392:Generated_Source\PSoC4/SPIM.c ****     }
 393:Generated_Source\PSoC4/SPIM.c ****     else
 394:Generated_Source\PSoC4/SPIM.c ****     {
 395:Generated_Source\PSoC4/SPIM.c ****         /* Unknown mode: do nothing */
 396:Generated_Source\PSoC4/SPIM.c ****     }
 397:Generated_Source\PSoC4/SPIM.c **** #endif /* (!SPIM_CY_SCBIP_V1) */
 398:Generated_Source\PSoC4/SPIM.c **** 
 399:Generated_Source\PSoC4/SPIM.c **** #elif (SPIM_SCB_MODE_SPI_CONST_CFG)
 400:Generated_Source\PSoC4/SPIM.c ****     SPIM_SpiPostEnable();
 340              		.loc 1 400 0
 341 0004 FFF7FEFF 		bl	SPIM_SpiPostEnable
ARM GAS  C:\Users\diego\AppData\Local\Temp\ccr4AvRa.s 			page 14


 401:Generated_Source\PSoC4/SPIM.c **** 
 402:Generated_Source\PSoC4/SPIM.c **** #elif (SPIM_SCB_MODE_UART_CONST_CFG)
 403:Generated_Source\PSoC4/SPIM.c ****     SPIM_UartPostEnable();
 404:Generated_Source\PSoC4/SPIM.c **** 
 405:Generated_Source\PSoC4/SPIM.c **** #else
 406:Generated_Source\PSoC4/SPIM.c ****     /* Unknown mode: do nothing */
 407:Generated_Source\PSoC4/SPIM.c **** #endif /* (SPIM_SCB_MODE_UNCONFIG_CONST_CFG) */
 408:Generated_Source\PSoC4/SPIM.c **** }
 342              		.loc 1 408 0
 343 0008 C046     		nop
 344 000a BD46     		mov	sp, r7
 345              		@ sp needed
 346 000c 80BD     		pop	{r7, pc}
 347              		.cfi_endproc
 348              	.LFE9:
 349              		.size	SPIM_ScbModePostEnable, .-SPIM_ScbModePostEnable
 350 000e C046     		.section	.text.SPIM_ScbModeStop,"ax",%progbits
 351              		.align	2
 352              		.code	16
 353              		.thumb_func
 354              		.type	SPIM_ScbModeStop, %function
 355              	SPIM_ScbModeStop:
 356              	.LFB10:
 409:Generated_Source\PSoC4/SPIM.c **** 
 410:Generated_Source\PSoC4/SPIM.c **** 
 411:Generated_Source\PSoC4/SPIM.c **** /*******************************************************************************
 412:Generated_Source\PSoC4/SPIM.c **** * Function Name: SPIM_ScbModeStop
 413:Generated_Source\PSoC4/SPIM.c **** ****************************************************************************//**
 414:Generated_Source\PSoC4/SPIM.c **** *
 415:Generated_Source\PSoC4/SPIM.c **** *  Calls the Stop function for a specific operation mode.
 416:Generated_Source\PSoC4/SPIM.c **** *
 417:Generated_Source\PSoC4/SPIM.c **** *******************************************************************************/
 418:Generated_Source\PSoC4/SPIM.c **** static void SPIM_ScbModeStop(void)
 419:Generated_Source\PSoC4/SPIM.c **** {
 357              		.loc 1 419 0
 358              		.cfi_startproc
 359              		@ args = 0, pretend = 0, frame = 0
 360              		@ frame_needed = 1, uses_anonymous_args = 0
 361 0000 80B5     		push	{r7, lr}
 362              		.cfi_def_cfa_offset 8
 363              		.cfi_offset 7, -8
 364              		.cfi_offset 14, -4
 365 0002 00AF     		add	r7, sp, #0
 366              		.cfi_def_cfa_register 7
 420:Generated_Source\PSoC4/SPIM.c **** #if (SPIM_SCB_MODE_UNCONFIG_CONST_CFG)
 421:Generated_Source\PSoC4/SPIM.c ****     if (SPIM_SCB_MODE_I2C_RUNTM_CFG)
 422:Generated_Source\PSoC4/SPIM.c ****     {
 423:Generated_Source\PSoC4/SPIM.c ****         SPIM_I2CStop();
 424:Generated_Source\PSoC4/SPIM.c ****     }
 425:Generated_Source\PSoC4/SPIM.c ****     else if (SPIM_SCB_MODE_EZI2C_RUNTM_CFG)
 426:Generated_Source\PSoC4/SPIM.c ****     {
 427:Generated_Source\PSoC4/SPIM.c ****         SPIM_EzI2CStop();
 428:Generated_Source\PSoC4/SPIM.c ****     }
 429:Generated_Source\PSoC4/SPIM.c **** #if (!SPIM_CY_SCBIP_V1)
 430:Generated_Source\PSoC4/SPIM.c ****     else if (SPIM_SCB_MODE_SPI_RUNTM_CFG)
 431:Generated_Source\PSoC4/SPIM.c ****     {
 432:Generated_Source\PSoC4/SPIM.c ****         SPIM_SpiStop();
ARM GAS  C:\Users\diego\AppData\Local\Temp\ccr4AvRa.s 			page 15


 433:Generated_Source\PSoC4/SPIM.c ****     }
 434:Generated_Source\PSoC4/SPIM.c ****     else if (SPIM_SCB_MODE_UART_RUNTM_CFG)
 435:Generated_Source\PSoC4/SPIM.c ****     {
 436:Generated_Source\PSoC4/SPIM.c ****         SPIM_UartStop();
 437:Generated_Source\PSoC4/SPIM.c ****     }
 438:Generated_Source\PSoC4/SPIM.c **** #endif /* (!SPIM_CY_SCBIP_V1) */
 439:Generated_Source\PSoC4/SPIM.c ****     else
 440:Generated_Source\PSoC4/SPIM.c ****     {
 441:Generated_Source\PSoC4/SPIM.c ****         /* Unknown mode: do nothing */
 442:Generated_Source\PSoC4/SPIM.c ****     }
 443:Generated_Source\PSoC4/SPIM.c **** #elif (SPIM_SCB_MODE_I2C_CONST_CFG)
 444:Generated_Source\PSoC4/SPIM.c ****     SPIM_I2CStop();
 445:Generated_Source\PSoC4/SPIM.c **** 
 446:Generated_Source\PSoC4/SPIM.c **** #elif (SPIM_SCB_MODE_EZI2C_CONST_CFG)
 447:Generated_Source\PSoC4/SPIM.c ****     SPIM_EzI2CStop();
 448:Generated_Source\PSoC4/SPIM.c **** 
 449:Generated_Source\PSoC4/SPIM.c **** #elif (SPIM_SCB_MODE_SPI_CONST_CFG)
 450:Generated_Source\PSoC4/SPIM.c ****     SPIM_SpiStop();
 367              		.loc 1 450 0
 368 0004 FFF7FEFF 		bl	SPIM_SpiStop
 451:Generated_Source\PSoC4/SPIM.c **** 
 452:Generated_Source\PSoC4/SPIM.c **** #elif (SPIM_SCB_MODE_UART_CONST_CFG)
 453:Generated_Source\PSoC4/SPIM.c ****     SPIM_UartStop();
 454:Generated_Source\PSoC4/SPIM.c **** 
 455:Generated_Source\PSoC4/SPIM.c **** #else
 456:Generated_Source\PSoC4/SPIM.c ****     /* Unknown mode: do nothing */
 457:Generated_Source\PSoC4/SPIM.c **** #endif /* (SPIM_SCB_MODE_UNCONFIG_CONST_CFG) */
 458:Generated_Source\PSoC4/SPIM.c **** }
 369              		.loc 1 458 0
 370 0008 C046     		nop
 371 000a BD46     		mov	sp, r7
 372              		@ sp needed
 373 000c 80BD     		pop	{r7, pc}
 374              		.cfi_endproc
 375              	.LFE10:
 376              		.size	SPIM_ScbModeStop, .-SPIM_ScbModeStop
 377 000e C046     		.text
 378              	.Letext0:
 379              		.file 2 "Generated_Source\\PSoC4/cytypes.h"
