ARM GAS  C:\Users\diego\AppData\Local\Temp\cc6Vs0BO.s 			page 1


   1              		.syntax unified
   2              		.cpu cortex-m0
   3              		.fpu softvfp
   4              		.eabi_attribute 20, 1
   5              		.eabi_attribute 21, 1
   6              		.eabi_attribute 23, 3
   7              		.eabi_attribute 24, 1
   8              		.eabi_attribute 25, 1
   9              		.eabi_attribute 26, 1
  10              		.eabi_attribute 30, 6
  11              		.eabi_attribute 34, 0
  12              		.eabi_attribute 18, 4
  13              		.thumb
  14              		.syntax unified
  15              		.file	"Thermistor.c"
  16              		.text
  17              	.Ltext0:
  18              		.cfi_sections	.debug_frame
  19              		.global	__aeabi_idiv
  20              		.section	.text.Thermistor_GetResistance,"ax",%progbits
  21              		.align	2
  22              		.global	Thermistor_GetResistance
  23              		.code	16
  24              		.thumb_func
  25              		.type	Thermistor_GetResistance, %function
  26              	Thermistor_GetResistance:
  27              	.LFB2:
  28              		.file 1 "Generated_Source\\PSoC4\\Thermistor.c"
   1:Generated_Source\PSoC4/Thermistor.c **** /*******************************************************************************
   2:Generated_Source\PSoC4/Thermistor.c **** * File Name: Thermistor.c
   3:Generated_Source\PSoC4/Thermistor.c **** * Version 1.20
   4:Generated_Source\PSoC4/Thermistor.c **** *
   5:Generated_Source\PSoC4/Thermistor.c **** * Description:
   6:Generated_Source\PSoC4/Thermistor.c **** *  This file provides the source code to the API for the ThermistorCalc
   7:Generated_Source\PSoC4/Thermistor.c **** *  Component.
   8:Generated_Source\PSoC4/Thermistor.c **** *
   9:Generated_Source\PSoC4/Thermistor.c **** * Note:
  10:Generated_Source\PSoC4/Thermistor.c **** *  None.
  11:Generated_Source\PSoC4/Thermistor.c **** *
  12:Generated_Source\PSoC4/Thermistor.c **** ********************************************************************************
  13:Generated_Source\PSoC4/Thermistor.c **** * Copyright 2013, Cypress Semiconductor Corporation.  All rights reserved.
  14:Generated_Source\PSoC4/Thermistor.c **** * You may use this file only in accordance with the license, terms, conditions,
  15:Generated_Source\PSoC4/Thermistor.c **** * disclaimers, and limitations in the end user license agreement accompanying
  16:Generated_Source\PSoC4/Thermistor.c **** * the software package with which this file was provided.
  17:Generated_Source\PSoC4/Thermistor.c **** *******************************************************************************/
  18:Generated_Source\PSoC4/Thermistor.c **** 
  19:Generated_Source\PSoC4/Thermistor.c **** #include "Thermistor.h"
  20:Generated_Source\PSoC4/Thermistor.c **** 
  21:Generated_Source\PSoC4/Thermistor.c **** 
  22:Generated_Source\PSoC4/Thermistor.c **** /*******************************************************************************
  23:Generated_Source\PSoC4/Thermistor.c **** * Function Name: Thermistor_GetResistance
  24:Generated_Source\PSoC4/Thermistor.c **** ********************************************************************************
  25:Generated_Source\PSoC4/Thermistor.c **** *
  26:Generated_Source\PSoC4/Thermistor.c **** * Summary:
  27:Generated_Source\PSoC4/Thermistor.c **** *  The digital values of the voltages across the reference resistor and the
  28:Generated_Source\PSoC4/Thermistor.c **** *  thermistor are passed to this function as parameters. The function returns
  29:Generated_Source\PSoC4/Thermistor.c **** *  the resistance, based on the voltage values.
ARM GAS  C:\Users\diego\AppData\Local\Temp\cc6Vs0BO.s 			page 2


  30:Generated_Source\PSoC4/Thermistor.c **** *
  31:Generated_Source\PSoC4/Thermistor.c **** * Parameters:
  32:Generated_Source\PSoC4/Thermistor.c **** *  vReference: the voltage across the reference resistor;
  33:Generated_Source\PSoC4/Thermistor.c **** *  vThermistor: the voltage across the thermistor.
  34:Generated_Source\PSoC4/Thermistor.c **** *  The ratio of these two voltages is used by this function. Therefore, the
  35:Generated_Source\PSoC4/Thermistor.c **** *  units for both parameters must be the same.
  36:Generated_Source\PSoC4/Thermistor.c **** *
  37:Generated_Source\PSoC4/Thermistor.c **** * Return:
  38:Generated_Source\PSoC4/Thermistor.c **** *  The return value is the resistance across the thermistor. The value returned
  39:Generated_Source\PSoC4/Thermistor.c **** *  is the resistance in Ohms.
  40:Generated_Source\PSoC4/Thermistor.c **** *
  41:Generated_Source\PSoC4/Thermistor.c **** *******************************************************************************/
  42:Generated_Source\PSoC4/Thermistor.c **** uint32 Thermistor_GetResistance(int16 vReference, int16 vThermistor)
  43:Generated_Source\PSoC4/Thermistor.c ****                                       
  44:Generated_Source\PSoC4/Thermistor.c **** {
  29              		.loc 1 44 0
  30              		.cfi_startproc
  31              		@ args = 0, pretend = 0, frame = 16
  32              		@ frame_needed = 1, uses_anonymous_args = 0
  33 0000 80B5     		push	{r7, lr}
  34              		.cfi_def_cfa_offset 8
  35              		.cfi_offset 7, -8
  36              		.cfi_offset 14, -4
  37 0002 84B0     		sub	sp, sp, #16
  38              		.cfi_def_cfa_offset 24
  39 0004 00AF     		add	r7, sp, #0
  40              		.cfi_def_cfa_register 7
  41 0006 0200     		movs	r2, r0
  42 0008 BB1D     		adds	r3, r7, #6
  43 000a 1A80     		strh	r2, [r3]
  44 000c 3B1D     		adds	r3, r7, #4
  45 000e 0A1C     		adds	r2, r1, #0
  46 0010 1A80     		strh	r2, [r3]
  45:Generated_Source\PSoC4/Thermistor.c ****     int32 resT;
  46:Generated_Source\PSoC4/Thermistor.c ****     int16 temp;
  47:Generated_Source\PSoC4/Thermistor.c **** 
  48:Generated_Source\PSoC4/Thermistor.c ****     /* Calculate thermistor resistance from the voltages */
  49:Generated_Source\PSoC4/Thermistor.c ****     resT = Thermistor_REF_RESISTOR * ((int32)vThermistor);
  47              		.loc 1 49 0
  48 0012 3B1D     		adds	r3, r7, #4
  49 0014 0022     		movs	r2, #0
  50 0016 9B5E     		ldrsh	r3, [r3, r2]
  51 0018 1D4A     		ldr	r2, .L5
  52 001a 5343     		muls	r3, r2
  53 001c BB60     		str	r3, [r7, #8]
  50:Generated_Source\PSoC4/Thermistor.c ****     if (vReference < 0)
  54              		.loc 1 50 0
  55 001e BB1D     		adds	r3, r7, #6
  56 0020 0022     		movs	r2, #0
  57 0022 9B5E     		ldrsh	r3, [r3, r2]
  58 0024 002B     		cmp	r3, #0
  59 0026 17DA     		bge	.L2
  51:Generated_Source\PSoC4/Thermistor.c ****     {
  52:Generated_Source\PSoC4/Thermistor.c ****         temp = -vReference;
  60              		.loc 1 52 0
  61 0028 BB1D     		adds	r3, r7, #6
  62 002a 1B88     		ldrh	r3, [r3]
ARM GAS  C:\Users\diego\AppData\Local\Temp\cc6Vs0BO.s 			page 3


  63 002c 5B42     		rsbs	r3, r3, #0
  64 002e 9AB2     		uxth	r2, r3
  65 0030 0E23     		movs	r3, #14
  66 0032 FB18     		adds	r3, r7, r3
  67 0034 1A80     		strh	r2, [r3]
  53:Generated_Source\PSoC4/Thermistor.c ****         temp = (int16)((uint16)((uint16)temp >> 1u));
  68              		.loc 1 53 0
  69 0036 0E23     		movs	r3, #14
  70 0038 FB18     		adds	r3, r7, r3
  71 003a 1B88     		ldrh	r3, [r3]
  72 003c 5B08     		lsrs	r3, r3, #1
  73 003e 9AB2     		uxth	r2, r3
  74 0040 0E23     		movs	r3, #14
  75 0042 FB18     		adds	r3, r7, r3
  76 0044 1A80     		strh	r2, [r3]
  54:Generated_Source\PSoC4/Thermistor.c ****         temp = -temp;
  77              		.loc 1 54 0
  78 0046 0E23     		movs	r3, #14
  79 0048 FB18     		adds	r3, r7, r3
  80 004a 1B88     		ldrh	r3, [r3]
  81 004c 5B42     		rsbs	r3, r3, #0
  82 004e 9AB2     		uxth	r2, r3
  83 0050 0E23     		movs	r3, #14
  84 0052 FB18     		adds	r3, r7, r3
  85 0054 1A80     		strh	r2, [r3]
  86 0056 06E0     		b	.L3
  87              	.L2:
  55:Generated_Source\PSoC4/Thermistor.c ****     }
  56:Generated_Source\PSoC4/Thermistor.c ****     else
  57:Generated_Source\PSoC4/Thermistor.c ****     {
  58:Generated_Source\PSoC4/Thermistor.c ****         temp = (int16)((uint16)((uint16)vReference >> 1u));
  88              		.loc 1 58 0
  89 0058 BB1D     		adds	r3, r7, #6
  90 005a 1B88     		ldrh	r3, [r3]
  91 005c 5B08     		lsrs	r3, r3, #1
  92 005e 9AB2     		uxth	r2, r3
  93 0060 0E23     		movs	r3, #14
  94 0062 FB18     		adds	r3, r7, r3
  95 0064 1A80     		strh	r2, [r3]
  96              	.L3:
  59:Generated_Source\PSoC4/Thermistor.c ****     }
  60:Generated_Source\PSoC4/Thermistor.c ****     resT += temp;
  97              		.loc 1 60 0
  98 0066 0E23     		movs	r3, #14
  99 0068 FB18     		adds	r3, r7, r3
 100 006a 0022     		movs	r2, #0
 101 006c 9B5E     		ldrsh	r3, [r3, r2]
 102 006e BA68     		ldr	r2, [r7, #8]
 103 0070 D318     		adds	r3, r2, r3
 104 0072 BB60     		str	r3, [r7, #8]
  61:Generated_Source\PSoC4/Thermistor.c ****     resT /= vReference;
 105              		.loc 1 61 0
 106 0074 BB1D     		adds	r3, r7, #6
 107 0076 0022     		movs	r2, #0
 108 0078 9B5E     		ldrsh	r3, [r3, r2]
 109 007a 1900     		movs	r1, r3
 110 007c B868     		ldr	r0, [r7, #8]
ARM GAS  C:\Users\diego\AppData\Local\Temp\cc6Vs0BO.s 			page 4


 111 007e FFF7FEFF 		bl	__aeabi_idiv
 112 0082 0300     		movs	r3, r0
 113 0084 BB60     		str	r3, [r7, #8]
  62:Generated_Source\PSoC4/Thermistor.c **** 
  63:Generated_Source\PSoC4/Thermistor.c ****     /* The ordering of Reference resistor value is specifically designed to keep the result from ov
  64:Generated_Source\PSoC4/Thermistor.c ****     return ((uint32)((uint32)resT << Thermistor_REF_RES_SHIFT));
 114              		.loc 1 64 0
 115 0086 BB68     		ldr	r3, [r7, #8]
  65:Generated_Source\PSoC4/Thermistor.c **** }
 116              		.loc 1 65 0
 117 0088 1800     		movs	r0, r3
 118 008a BD46     		mov	sp, r7
 119 008c 04B0     		add	sp, sp, #16
 120              		@ sp needed
 121 008e 80BD     		pop	{r7, pc}
 122              	.L6:
 123              		.align	2
 124              	.L5:
 125 0090 10270000 		.word	10000
 126              		.cfi_endproc
 127              	.LFE2:
 128              		.size	Thermistor_GetResistance, .-Thermistor_GetResistance
 129              		.section	.text.Thermistor_GetTemperature,"ax",%progbits
 130              		.align	2
 131              		.global	Thermistor_GetTemperature
 132              		.code	16
 133              		.thumb_func
 134              		.type	Thermistor_GetTemperature, %function
 135              	Thermistor_GetTemperature:
 136              	.LFB3:
  66:Generated_Source\PSoC4/Thermistor.c **** 
  67:Generated_Source\PSoC4/Thermistor.c **** 
  68:Generated_Source\PSoC4/Thermistor.c **** /*******************************************************************************
  69:Generated_Source\PSoC4/Thermistor.c **** * Function Name: Thermistor_GetTemperature
  70:Generated_Source\PSoC4/Thermistor.c **** ********************************************************************************
  71:Generated_Source\PSoC4/Thermistor.c **** *
  72:Generated_Source\PSoC4/Thermistor.c **** * Summary:
  73:Generated_Source\PSoC4/Thermistor.c **** *  The value of the thermistor resistance is passed to this function as a
  74:Generated_Source\PSoC4/Thermistor.c **** *  parameter. The function returns the temperature, based on the resistance
  75:Generated_Source\PSoC4/Thermistor.c **** *  value. The method used to calculate the temperature is dependent on whether
  76:Generated_Source\PSoC4/Thermistor.c **** *  Equation or LUT was selected in the Customizer.
  77:Generated_Source\PSoC4/Thermistor.c **** *
  78:Generated_Source\PSoC4/Thermistor.c **** * Parameters:
  79:Generated_Source\PSoC4/Thermistor.c **** *  resT: the resistance across the thermistor in Ohms.
  80:Generated_Source\PSoC4/Thermistor.c **** *
  81:Generated_Source\PSoC4/Thermistor.c **** * Return:
  82:Generated_Source\PSoC4/Thermistor.c **** *  The return value is the temperature in 1/100ths of degrees C. For example,
  83:Generated_Source\PSoC4/Thermistor.c **** *  the return value is 2345, when the actual temperature is 23.45 degrees C.
  84:Generated_Source\PSoC4/Thermistor.c **** *
  85:Generated_Source\PSoC4/Thermistor.c **** *******************************************************************************/
  86:Generated_Source\PSoC4/Thermistor.c **** int16 Thermistor_GetTemperature(uint32 resT) 
  87:Generated_Source\PSoC4/Thermistor.c **** {
 137              		.loc 1 87 0
 138              		.cfi_startproc
 139              		@ args = 0, pretend = 0, frame = 16
 140              		@ frame_needed = 1, uses_anonymous_args = 0
 141 0000 80B5     		push	{r7, lr}
ARM GAS  C:\Users\diego\AppData\Local\Temp\cc6Vs0BO.s 			page 5


 142              		.cfi_def_cfa_offset 8
 143              		.cfi_offset 7, -8
 144              		.cfi_offset 14, -4
 145 0002 84B0     		sub	sp, sp, #16
 146              		.cfi_def_cfa_offset 24
 147 0004 00AF     		add	r7, sp, #0
 148              		.cfi_def_cfa_register 7
 149 0006 7860     		str	r0, [r7, #4]
  88:Generated_Source\PSoC4/Thermistor.c ****     int16 tempTR;
  89:Generated_Source\PSoC4/Thermistor.c ****     static const uint32 CYCODE Thermistor_LUT[] = { 27219u, 27103u, 26987u, 26871u, 26757u, 26643u,
  90:Generated_Source\PSoC4/Thermistor.c ****  26191u, 26080u, 25969u, 25859u, 25749u, 25639u, 25531u, 25422u, 25315u, 25207u, 25101u, 24994u, 24
  91:Generated_Source\PSoC4/Thermistor.c ****  24575u, 24471u, 24368u, 24265u, 24163u, 24061u, 23960u, 23859u, 23759u, 23659u, 23559u, 23461u, 23
  92:Generated_Source\PSoC4/Thermistor.c ****  23070u, 22973u, 22877u, 22782u, 22686u, 22592u, 22497u, 22403u, 22310u, 22217u, 22125u, 22033u, 21
  93:Generated_Source\PSoC4/Thermistor.c ****  21669u, 21579u, 21489u, 21400u, 21311u, 21223u, 21135u, 21048u, 20961u, 20874u, 20788u, 20702u, 20
  94:Generated_Source\PSoC4/Thermistor.c ****  20363u, 20279u, 20196u, 20113u, 20030u, 19948u, 19866u, 19784u, 19703u, 19623u, 19542u, 19462u, 19
  95:Generated_Source\PSoC4/Thermistor.c ****  19146u, 19068u, 18990u, 18912u, 18835u, 18759u, 18682u, 18606u, 18531u, 18455u, 18380u, 18306u, 18
  96:Generated_Source\PSoC4/Thermistor.c ****  18011u, 17938u, 17865u, 17793u, 17721u, 17649u, 17578u, 17507u, 17437u, 17366u, 17296u, 17227u, 17
  97:Generated_Source\PSoC4/Thermistor.c ****  16951u, 16883u, 16815u, 16748u, 16681u, 16614u, 16547u, 16481u, 16415u, 16350u, 16284u, 16219u, 16
  98:Generated_Source\PSoC4/Thermistor.c ****  15962u, 15898u, 15835u, 15772u, 15709u, 15647u, 15585u, 15523u, 15461u, 15400u, 15339u, 15278u, 15
  99:Generated_Source\PSoC4/Thermistor.c ****  15038u, 14978u, 14919u, 14860u, 14802u, 14743u, 14685u, 14627u, 14570u, 14513u, 14456u, 14399u, 14
 100:Generated_Source\PSoC4/Thermistor.c ****  14174u, 14118u, 14063u, 14008u, 13953u, 13899u, 13844u, 13790u, 13737u, 13683u, 13630u, 13576u, 13
 101:Generated_Source\PSoC4/Thermistor.c ****  13366u, 13314u, 13263u, 13211u, 13160u, 13109u, 13058u, 13007u, 12957u, 12907u, 12857u, 12807u, 12
 102:Generated_Source\PSoC4/Thermistor.c ****  12610u, 12562u, 12513u, 12465u, 12417u, 12369u, 12322u, 12275u, 12227u, 12180u, 12134u, 12087u, 12
 103:Generated_Source\PSoC4/Thermistor.c ****  11903u, 11857u, 11812u, 11767u, 11722u, 11677u, 11633u, 11588u, 11544u, 11500u, 11456u, 11413u, 11
 104:Generated_Source\PSoC4/Thermistor.c ****  11240u, 11198u, 11155u, 11113u, 11071u, 11029u, 10987u, 10946u, 10904u, 10863u, 10822u, 10781u, 10
 105:Generated_Source\PSoC4/Thermistor.c ****  10620u, 10580u, 10540u, 10500u, 10461u, 10421u, 10382u, 10343u, 10304u, 10266u, 10227u, 10189u, 10
 106:Generated_Source\PSoC4/Thermistor.c ****  10037u, 10000u, 9963u, 9926u, 9888u, 9852u, 9815u, 9778u, 9742u, 9706u, 9670u, 9634u, 9598u, 9562u
 107:Generated_Source\PSoC4/Thermistor.c ****  9456u, 9421u, 9387u, 9352u, 9317u, 9283u, 9249u, 9214u, 9180u, 9147u, 9113u, 9079u, 9046u, 9013u, 
 108:Generated_Source\PSoC4/Thermistor.c ****  8881u, 8848u, 8816u, 8783u, 8751u, 8719u, 8687u, 8655u, 8624u, 8592u, 8561u, 8530u, 8498u, 8467u, 
 109:Generated_Source\PSoC4/Thermistor.c ****  8345u, 8314u, 8284u, 8254u, 8224u, 8194u, 8165u, 8135u, 8105u, 8076u, 8047u, 8018u, 7989u, 7960u, 
 110:Generated_Source\PSoC4/Thermistor.c ****  7845u, 7817u, 7789u, 7761u, 7733u, 7705u, 7678u, 7650u, 7622u, 7595u, 7568u, 7541u, 7514u, 7487u, 
 111:Generated_Source\PSoC4/Thermistor.c ****  7380u, 7354u, 7327u, 7301u, 7275u, 7249u, 7223u, 7198u, 7172u, 7147u, 7121u, 7096u, 7071u, 7046u, 
 112:Generated_Source\PSoC4/Thermistor.c ****  6946u, 6921u, 6897u, 6873u, 6848u, 6824u, 6800u, 6776u, 6752u, 6728u, 6704u, 6681u, 6657u, 6634u, 
 113:Generated_Source\PSoC4/Thermistor.c ****  6541u, 6518u, 6495u, 6472u, 6450u, 6427u, 6405u, 6382u, 6360u, 6338u, 6316u, 6293u, 6271u, 6250u, 
 114:Generated_Source\PSoC4/Thermistor.c ****  6163u, 6141u, 6120u, 6099u, 6078u, 6057u, 6035u, 6015u, 5994u, 5973u, 5952u, 5932u, 5911u, 5891u, 
 115:Generated_Source\PSoC4/Thermistor.c ****  5810u, 5790u, 5770u, 5750u, 5730u, 5710u, 5691u, 5671u, 5651u, 5632u, 5613u, 5593u, 5574u, 5555u, 
 116:Generated_Source\PSoC4/Thermistor.c ****  5479u, 5461u, 5442u, 5423u, 5405u, 5386u, 5368u, 5350u, 5332u, 5313u, 5295u, 5277u, 5259u, 5241u, 
 117:Generated_Source\PSoC4/Thermistor.c ****  5171u, 5153u, 5136u, 5118u, 5101u, 5084u, 5066u, 5049u, 5032u, 5015u, 4998u, 4981u, 4965u, 4948u, 
 118:Generated_Source\PSoC4/Thermistor.c ****  4882u, 4865u, 4849u, 4833u, 4816u, 4800u, 4784u, 4768u, 4752u, 4736u, 4720u, 4705u, 4689u, 4673u, 
 119:Generated_Source\PSoC4/Thermistor.c ****  4611u, 4596u, 4580u, 4565u, 4550u, 4535u, 4520u, 4505u, 4490u, 4475u, 4460u, 4445u, 4431u, 4416u, 
 120:Generated_Source\PSoC4/Thermistor.c ****  4358u, 4343u, 4329u, 4315u, 4300u, 4286u, 4272u, 4258u, 4244u, 4230u, 4216u, 4202u, 4188u, 4175u, 
 121:Generated_Source\PSoC4/Thermistor.c **** 
 122:Generated_Source\PSoC4/Thermistor.c **** 
 123:Generated_Source\PSoC4/Thermistor.c ****     #if (Thermistor_IMPLEMENTATION == Thermistor_EQUATION_METHOD)
 124:Generated_Source\PSoC4/Thermistor.c **** 
 125:Generated_Source\PSoC4/Thermistor.c ****         float32 stEqn;
 126:Generated_Source\PSoC4/Thermistor.c ****         float32 logrT;
 127:Generated_Source\PSoC4/Thermistor.c **** 
 128:Generated_Source\PSoC4/Thermistor.c ****         /* Calculate thermistor resistance from the voltages */
 129:Generated_Source\PSoC4/Thermistor.c ****         #if(!CY_PSOC3)
 130:Generated_Source\PSoC4/Thermistor.c ****             logrT = (float32)log((float64)resT);
 131:Generated_Source\PSoC4/Thermistor.c ****         #else
 132:Generated_Source\PSoC4/Thermistor.c ****             logrT = log((float32)resT);
 133:Generated_Source\PSoC4/Thermistor.c ****         #endif  /* (!CY_PSOC3) */
 134:Generated_Source\PSoC4/Thermistor.c **** 
 135:Generated_Source\PSoC4/Thermistor.c ****         /* Calculate temperature from the resistance of thermistor using Steinhart-Hart Equation */
 136:Generated_Source\PSoC4/Thermistor.c ****         #if(!CY_PSOC3)
ARM GAS  C:\Users\diego\AppData\Local\Temp\cc6Vs0BO.s 			page 6


 137:Generated_Source\PSoC4/Thermistor.c ****             stEqn = (float32)(Thermistor_THA + (Thermistor_THB * logrT) + 
 138:Generated_Source\PSoC4/Thermistor.c ****                              (Thermistor_THC * pow((float64)logrT, (float32)3)));
 139:Generated_Source\PSoC4/Thermistor.c ****         #else
 140:Generated_Source\PSoC4/Thermistor.c ****             stEqn = (float32)(Thermistor_THA + (Thermistor_THB * logrT) + 
 141:Generated_Source\PSoC4/Thermistor.c ****                              (Thermistor_THC * pow(logrT, (float32)3)));
 142:Generated_Source\PSoC4/Thermistor.c ****         #endif  /* (!CY_PSOC3) */
 143:Generated_Source\PSoC4/Thermistor.c **** 
 144:Generated_Source\PSoC4/Thermistor.c ****         tempTR = (int16)((float32)((((1.0 / stEqn) - Thermistor_K2C) * (float32)Thermistor_SCALE) +
 145:Generated_Source\PSoC4/Thermistor.c **** 
 146:Generated_Source\PSoC4/Thermistor.c ****     #else /* Thermistor_IMPLEMENTATION == Thermistor_LUT_METHOD */
 147:Generated_Source\PSoC4/Thermistor.c **** 
 148:Generated_Source\PSoC4/Thermistor.c ****         uint16 mid;
 149:Generated_Source\PSoC4/Thermistor.c ****         uint16 first = 0u;
 150              		.loc 1 149 0
 151 0008 0E23     		movs	r3, #14
 152 000a FB18     		adds	r3, r7, r3
 153 000c 0022     		movs	r2, #0
 154 000e 1A80     		strh	r2, [r3]
 150:Generated_Source\PSoC4/Thermistor.c ****         uint16 last = Thermistor_LUT_SIZE - 1u;
 155              		.loc 1 150 0
 156 0010 0C23     		movs	r3, #12
 157 0012 FB18     		adds	r3, r7, r3
 158 0014 FA22     		movs	r2, #250
 159 0016 5200     		lsls	r2, r2, #1
 160 0018 1A80     		strh	r2, [r3]
 151:Generated_Source\PSoC4/Thermistor.c **** 
 152:Generated_Source\PSoC4/Thermistor.c ****         /* Calculate temperature from the resistance of thermistor by using the LUT */
 153:Generated_Source\PSoC4/Thermistor.c ****         while (first < last)
 161              		.loc 1 153 0
 162 001a 4AE0     		b	.L8
 163              	.L13:
 154:Generated_Source\PSoC4/Thermistor.c ****         {
 155:Generated_Source\PSoC4/Thermistor.c ****             mid = (first + last) >> 1u;
 164              		.loc 1 155 0
 165 001c 0E23     		movs	r3, #14
 166 001e FB18     		adds	r3, r7, r3
 167 0020 1A88     		ldrh	r2, [r3]
 168 0022 0C23     		movs	r3, #12
 169 0024 FB18     		adds	r3, r7, r3
 170 0026 1B88     		ldrh	r3, [r3]
 171 0028 D318     		adds	r3, r2, r3
 172 002a 5A10     		asrs	r2, r3, #1
 173 002c 0A23     		movs	r3, #10
 174 002e FB18     		adds	r3, r7, r3
 175 0030 1A80     		strh	r2, [r3]
 156:Generated_Source\PSoC4/Thermistor.c **** 
 157:Generated_Source\PSoC4/Thermistor.c ****             if ((0u == mid) || ((Thermistor_LUT_SIZE - 1u) == mid) || (resT == Thermistor_LUT[mid])
 176              		.loc 1 157 0
 177 0032 0A23     		movs	r3, #10
 178 0034 FB18     		adds	r3, r7, r3
 179 0036 1B88     		ldrh	r3, [r3]
 180 0038 002B     		cmp	r3, #0
 181 003a 0FD0     		beq	.L9
 182              		.loc 1 157 0 is_stmt 0 discriminator 1
 183 003c 0A23     		movs	r3, #10
 184 003e FB18     		adds	r3, r7, r3
 185 0040 1A88     		ldrh	r2, [r3]
ARM GAS  C:\Users\diego\AppData\Local\Temp\cc6Vs0BO.s 			page 7


 186 0042 FA23     		movs	r3, #250
 187 0044 5B00     		lsls	r3, r3, #1
 188 0046 9A42     		cmp	r2, r3
 189 0048 08D0     		beq	.L9
 190              		.loc 1 157 0 discriminator 2
 191 004a 0A23     		movs	r3, #10
 192 004c FB18     		adds	r3, r7, r3
 193 004e 1A88     		ldrh	r2, [r3]
 194 0050 4F4B     		ldr	r3, .L17
 195 0052 9200     		lsls	r2, r2, #2
 196 0054 D258     		ldr	r2, [r2, r3]
 197 0056 7B68     		ldr	r3, [r7, #4]
 198 0058 9A42     		cmp	r2, r3
 199 005a 06D1     		bne	.L10
 200              	.L9:
 158:Generated_Source\PSoC4/Thermistor.c ****             {
 159:Generated_Source\PSoC4/Thermistor.c ****                 last = mid;
 201              		.loc 1 159 0 is_stmt 1
 202 005c 0C23     		movs	r3, #12
 203 005e FB18     		adds	r3, r7, r3
 204 0060 0A22     		movs	r2, #10
 205 0062 BA18     		adds	r2, r7, r2
 206 0064 1288     		ldrh	r2, [r2]
 207 0066 1A80     		strh	r2, [r3]
 160:Generated_Source\PSoC4/Thermistor.c ****                 break;
 208              		.loc 1 160 0
 209 0068 2BE0     		b	.L11
 210              	.L10:
 161:Generated_Source\PSoC4/Thermistor.c ****             }
 162:Generated_Source\PSoC4/Thermistor.c ****             else if (Thermistor_LUT[mid] > resT)
 211              		.loc 1 162 0
 212 006a 0A23     		movs	r3, #10
 213 006c FB18     		adds	r3, r7, r3
 214 006e 1A88     		ldrh	r2, [r3]
 215 0070 474B     		ldr	r3, .L17
 216 0072 9200     		lsls	r2, r2, #2
 217 0074 D258     		ldr	r2, [r2, r3]
 218 0076 7B68     		ldr	r3, [r7, #4]
 219 0078 9A42     		cmp	r2, r3
 220 007a 0DD9     		bls	.L12
 163:Generated_Source\PSoC4/Thermistor.c ****             {
 164:Generated_Source\PSoC4/Thermistor.c ****                 first = mid + 1u;
 221              		.loc 1 164 0
 222 007c 0E23     		movs	r3, #14
 223 007e FB18     		adds	r3, r7, r3
 224 0080 0A22     		movs	r2, #10
 225 0082 BA18     		adds	r2, r7, r2
 226 0084 1288     		ldrh	r2, [r2]
 227 0086 0132     		adds	r2, r2, #1
 228 0088 1A80     		strh	r2, [r3]
 229 008a 0C23     		movs	r3, #12
 230 008c FB18     		adds	r3, r7, r3
 231 008e 0C22     		movs	r2, #12
 232 0090 BA18     		adds	r2, r7, r2
 233 0092 1288     		ldrh	r2, [r2]
 234 0094 1A80     		strh	r2, [r3]
 235 0096 0CE0     		b	.L8
ARM GAS  C:\Users\diego\AppData\Local\Temp\cc6Vs0BO.s 			page 8


 236              	.L12:
 165:Generated_Source\PSoC4/Thermistor.c ****             }
 166:Generated_Source\PSoC4/Thermistor.c ****             else /* (Thermistor_LUT[mid] < resT) */
 167:Generated_Source\PSoC4/Thermistor.c ****             {
 168:Generated_Source\PSoC4/Thermistor.c ****                 last = mid - 1u;
 237              		.loc 1 168 0
 238 0098 0C23     		movs	r3, #12
 239 009a FB18     		adds	r3, r7, r3
 240 009c 0A22     		movs	r2, #10
 241 009e BA18     		adds	r2, r7, r2
 242 00a0 1288     		ldrh	r2, [r2]
 243 00a2 013A     		subs	r2, r2, #1
 244 00a4 1A80     		strh	r2, [r3]
 245 00a6 0E23     		movs	r3, #14
 246 00a8 FB18     		adds	r3, r7, r3
 247 00aa 0E22     		movs	r2, #14
 248 00ac BA18     		adds	r2, r7, r2
 249 00ae 1288     		ldrh	r2, [r2]
 250 00b0 1A80     		strh	r2, [r3]
 251              	.L8:
 153:Generated_Source\PSoC4/Thermistor.c ****         {
 252              		.loc 1 153 0
 253 00b2 0E23     		movs	r3, #14
 254 00b4 FA18     		adds	r2, r7, r3
 255 00b6 0C23     		movs	r3, #12
 256 00b8 FB18     		adds	r3, r7, r3
 257 00ba 1288     		ldrh	r2, [r2]
 258 00bc 1B88     		ldrh	r3, [r3]
 259 00be 9A42     		cmp	r2, r3
 260 00c0 ACD3     		bcc	.L13
 261              	.L11:
 169:Generated_Source\PSoC4/Thermistor.c ****             }
 170:Generated_Source\PSoC4/Thermistor.c ****         }
 171:Generated_Source\PSoC4/Thermistor.c **** 
 172:Generated_Source\PSoC4/Thermistor.c ****         /* Calculation the closest entry in the LUT */
 173:Generated_Source\PSoC4/Thermistor.c ****         if ((Thermistor_LUT[last] > resT) && (last < (Thermistor_LUT_SIZE - 1u)) &&
 262              		.loc 1 173 0
 263 00c2 0C23     		movs	r3, #12
 264 00c4 FB18     		adds	r3, r7, r3
 265 00c6 1A88     		ldrh	r2, [r3]
 266 00c8 314B     		ldr	r3, .L17
 267 00ca 9200     		lsls	r2, r2, #2
 268 00cc D258     		ldr	r2, [r2, r3]
 269 00ce 7B68     		ldr	r3, [r7, #4]
 270 00d0 9A42     		cmp	r2, r3
 271 00d2 21D9     		bls	.L14
 272              		.loc 1 173 0 is_stmt 0 discriminator 1
 273 00d4 0C23     		movs	r3, #12
 274 00d6 FB18     		adds	r3, r7, r3
 275 00d8 1A88     		ldrh	r2, [r3]
 276 00da F423     		movs	r3, #244
 277 00dc FF33     		adds	r3, r3, #255
 278 00de 9A42     		cmp	r2, r3
 279 00e0 1AD8     		bhi	.L14
 174:Generated_Source\PSoC4/Thermistor.c ****            ((Thermistor_LUT[last] - resT) > (resT - Thermistor_LUT[last + 1u])))
 280              		.loc 1 174 0 is_stmt 1 discriminator 2
 281 00e2 0C23     		movs	r3, #12
ARM GAS  C:\Users\diego\AppData\Local\Temp\cc6Vs0BO.s 			page 9


 282 00e4 FB18     		adds	r3, r7, r3
 283 00e6 1A88     		ldrh	r2, [r3]
 284 00e8 294B     		ldr	r3, .L17
 285 00ea 9200     		lsls	r2, r2, #2
 286 00ec D258     		ldr	r2, [r2, r3]
 287 00ee 7B68     		ldr	r3, [r7, #4]
 288 00f0 D21A     		subs	r2, r2, r3
 289 00f2 0C23     		movs	r3, #12
 290 00f4 FB18     		adds	r3, r7, r3
 291 00f6 1B88     		ldrh	r3, [r3]
 292 00f8 591C     		adds	r1, r3, #1
 293 00fa 254B     		ldr	r3, .L17
 294 00fc 8900     		lsls	r1, r1, #2
 295 00fe CB58     		ldr	r3, [r1, r3]
 296 0100 7968     		ldr	r1, [r7, #4]
 297 0102 CB1A     		subs	r3, r1, r3
 173:Generated_Source\PSoC4/Thermistor.c ****            ((Thermistor_LUT[last] - resT) > (resT - Thermistor_LUT[last + 1u])))
 298              		.loc 1 173 0 discriminator 2
 299 0104 9A42     		cmp	r2, r3
 300 0106 07D9     		bls	.L14
 175:Generated_Source\PSoC4/Thermistor.c ****         {
 176:Generated_Source\PSoC4/Thermistor.c ****             last++;
 301              		.loc 1 176 0
 302 0108 0C23     		movs	r3, #12
 303 010a FB18     		adds	r3, r7, r3
 304 010c 1A88     		ldrh	r2, [r3]
 305 010e 0C23     		movs	r3, #12
 306 0110 FB18     		adds	r3, r7, r3
 307 0112 0132     		adds	r2, r2, #1
 308 0114 1A80     		strh	r2, [r3]
 309 0116 27E0     		b	.L15
 310              	.L14:
 177:Generated_Source\PSoC4/Thermistor.c ****         }
 178:Generated_Source\PSoC4/Thermistor.c ****         else if ((Thermistor_LUT[last] < resT) && (last > 0u) &&
 311              		.loc 1 178 0
 312 0118 0C23     		movs	r3, #12
 313 011a FB18     		adds	r3, r7, r3
 314 011c 1A88     		ldrh	r2, [r3]
 315 011e 1C4B     		ldr	r3, .L17
 316 0120 9200     		lsls	r2, r2, #2
 317 0122 D258     		ldr	r2, [r2, r3]
 318 0124 7B68     		ldr	r3, [r7, #4]
 319 0126 9A42     		cmp	r2, r3
 320 0128 1ED2     		bcs	.L15
 321              		.loc 1 178 0 is_stmt 0 discriminator 1
 322 012a 0C23     		movs	r3, #12
 323 012c FB18     		adds	r3, r7, r3
 324 012e 1B88     		ldrh	r3, [r3]
 325 0130 002B     		cmp	r3, #0
 326 0132 19D0     		beq	.L15
 179:Generated_Source\PSoC4/Thermistor.c ****                 ((Thermistor_LUT[last - 1u] - resT) < (resT - Thermistor_LUT[last])))
 327              		.loc 1 179 0 is_stmt 1 discriminator 2
 328 0134 0C23     		movs	r3, #12
 329 0136 FB18     		adds	r3, r7, r3
 330 0138 1B88     		ldrh	r3, [r3]
 331 013a 5A1E     		subs	r2, r3, #1
 332 013c 144B     		ldr	r3, .L17
ARM GAS  C:\Users\diego\AppData\Local\Temp\cc6Vs0BO.s 			page 10


 333 013e 9200     		lsls	r2, r2, #2
 334 0140 D258     		ldr	r2, [r2, r3]
 335 0142 7B68     		ldr	r3, [r7, #4]
 336 0144 D21A     		subs	r2, r2, r3
 337 0146 0C23     		movs	r3, #12
 338 0148 FB18     		adds	r3, r7, r3
 339 014a 1988     		ldrh	r1, [r3]
 340 014c 104B     		ldr	r3, .L17
 341 014e 8900     		lsls	r1, r1, #2
 342 0150 CB58     		ldr	r3, [r1, r3]
 343 0152 7968     		ldr	r1, [r7, #4]
 344 0154 CB1A     		subs	r3, r1, r3
 178:Generated_Source\PSoC4/Thermistor.c ****                 ((Thermistor_LUT[last - 1u] - resT) < (resT - Thermistor_LUT[last])))
 345              		.loc 1 178 0 discriminator 2
 346 0156 9A42     		cmp	r2, r3
 347 0158 06D2     		bcs	.L15
 180:Generated_Source\PSoC4/Thermistor.c ****         {
 181:Generated_Source\PSoC4/Thermistor.c ****             last--;
 348              		.loc 1 181 0
 349 015a 0C23     		movs	r3, #12
 350 015c FB18     		adds	r3, r7, r3
 351 015e 1A88     		ldrh	r2, [r3]
 352 0160 0C23     		movs	r3, #12
 353 0162 FB18     		adds	r3, r7, r3
 354 0164 013A     		subs	r2, r2, #1
 355 0166 1A80     		strh	r2, [r3]
 356              	.L15:
 182:Generated_Source\PSoC4/Thermistor.c ****         }
 183:Generated_Source\PSoC4/Thermistor.c ****         else
 184:Generated_Source\PSoC4/Thermistor.c ****         {
 185:Generated_Source\PSoC4/Thermistor.c ****             /* Closest entry in the LUT already found */
 186:Generated_Source\PSoC4/Thermistor.c ****         }
 187:Generated_Source\PSoC4/Thermistor.c **** 
 188:Generated_Source\PSoC4/Thermistor.c ****         tempTR = Thermistor_MIN_TEMP + (int16)((uint16)(last * Thermistor_ACCURACY));
 357              		.loc 1 188 0
 358 0168 0C23     		movs	r3, #12
 359 016a FB18     		adds	r3, r7, r3
 360 016c 1B88     		ldrh	r3, [r3]
 361 016e 1A1C     		adds	r2, r3, #0
 362 0170 9200     		lsls	r2, r2, #2
 363 0172 D318     		adds	r3, r2, r3
 364 0174 DB18     		adds	r3, r3, r3
 365 0176 9AB2     		uxth	r2, r3
 366 0178 0823     		movs	r3, #8
 367 017a FB18     		adds	r3, r7, r3
 368 017c 1A80     		strh	r2, [r3]
 189:Generated_Source\PSoC4/Thermistor.c **** 
 190:Generated_Source\PSoC4/Thermistor.c ****     #endif /* (Thermistor_IMPLEMENTATION == Thermistor_EQUATION_METHOD) */
 191:Generated_Source\PSoC4/Thermistor.c **** 
 192:Generated_Source\PSoC4/Thermistor.c ****     return (tempTR);
 369              		.loc 1 192 0
 370 017e 0823     		movs	r3, #8
 371 0180 FB18     		adds	r3, r7, r3
 372 0182 0022     		movs	r2, #0
 373 0184 9B5E     		ldrsh	r3, [r3, r2]
 193:Generated_Source\PSoC4/Thermistor.c **** }
 374              		.loc 1 193 0
ARM GAS  C:\Users\diego\AppData\Local\Temp\cc6Vs0BO.s 			page 11


 375 0186 1800     		movs	r0, r3
 376 0188 BD46     		mov	sp, r7
 377 018a 04B0     		add	sp, sp, #16
 378              		@ sp needed
 379 018c 80BD     		pop	{r7, pc}
 380              	.L18:
 381 018e C046     		.align	2
 382              	.L17:
 383 0190 00000000 		.word	Thermistor_LUT.4855
 384              		.cfi_endproc
 385              	.LFE3:
 386              		.size	Thermistor_GetTemperature, .-Thermistor_GetTemperature
 387              		.section	.rodata
 388              		.align	2
 389              		.type	Thermistor_LUT.4855, %object
 390              		.size	Thermistor_LUT.4855, 2004
 391              	Thermistor_LUT.4855:
 392 0000 536A0000 		.word	27219
 393 0004 DF690000 		.word	27103
 394 0008 6B690000 		.word	26987
 395 000c F7680000 		.word	26871
 396 0010 85680000 		.word	26757
 397 0014 13680000 		.word	26643
 398 0018 A1670000 		.word	26529
 399 001c 30670000 		.word	26416
 400 0020 BF660000 		.word	26303
 401 0024 4F660000 		.word	26191
 402 0028 E0650000 		.word	26080
 403 002c 71650000 		.word	25969
 404 0030 03650000 		.word	25859
 405 0034 95640000 		.word	25749
 406 0038 27640000 		.word	25639
 407 003c BB630000 		.word	25531
 408 0040 4E630000 		.word	25422
 409 0044 E3620000 		.word	25315
 410 0048 77620000 		.word	25207
 411 004c 0D620000 		.word	25101
 412 0050 A2610000 		.word	24994
 413 0054 39610000 		.word	24889
 414 0058 CF600000 		.word	24783
 415 005c 67600000 		.word	24679
 416 0060 FF5F0000 		.word	24575
 417 0064 975F0000 		.word	24471
 418 0068 305F0000 		.word	24368
 419 006c C95E0000 		.word	24265
 420 0070 635E0000 		.word	24163
 421 0074 FD5D0000 		.word	24061
 422 0078 985D0000 		.word	23960
 423 007c 335D0000 		.word	23859
 424 0080 CF5C0000 		.word	23759
 425 0084 6B5C0000 		.word	23659
 426 0088 075C0000 		.word	23559
 427 008c A55B0000 		.word	23461
 428 0090 425B0000 		.word	23362
 429 0094 E05A0000 		.word	23264
 430 0098 7F5A0000 		.word	23167
 431 009c 1E5A0000 		.word	23070
ARM GAS  C:\Users\diego\AppData\Local\Temp\cc6Vs0BO.s 			page 12


 432 00a0 BD590000 		.word	22973
 433 00a4 5D590000 		.word	22877
 434 00a8 FE580000 		.word	22782
 435 00ac 9E580000 		.word	22686
 436 00b0 40580000 		.word	22592
 437 00b4 E1570000 		.word	22497
 438 00b8 83570000 		.word	22403
 439 00bc 26570000 		.word	22310
 440 00c0 C9560000 		.word	22217
 441 00c4 6D560000 		.word	22125
 442 00c8 11560000 		.word	22033
 443 00cc B5550000 		.word	21941
 444 00d0 5A550000 		.word	21850
 445 00d4 FF540000 		.word	21759
 446 00d8 A5540000 		.word	21669
 447 00dc 4B540000 		.word	21579
 448 00e0 F1530000 		.word	21489
 449 00e4 98530000 		.word	21400
 450 00e8 3F530000 		.word	21311
 451 00ec E7520000 		.word	21223
 452 00f0 8F520000 		.word	21135
 453 00f4 38520000 		.word	21048
 454 00f8 E1510000 		.word	20961
 455 00fc 8A510000 		.word	20874
 456 0100 34510000 		.word	20788
 457 0104 DE500000 		.word	20702
 458 0108 89500000 		.word	20617
 459 010c 34500000 		.word	20532
 460 0110 DF4F0000 		.word	20447
 461 0114 8B4F0000 		.word	20363
 462 0118 374F0000 		.word	20279
 463 011c E44E0000 		.word	20196
 464 0120 914E0000 		.word	20113
 465 0124 3E4E0000 		.word	20030
 466 0128 EC4D0000 		.word	19948
 467 012c 9A4D0000 		.word	19866
 468 0130 484D0000 		.word	19784
 469 0134 F74C0000 		.word	19703
 470 0138 A74C0000 		.word	19623
 471 013c 564C0000 		.word	19542
 472 0140 064C0000 		.word	19462
 473 0144 B74B0000 		.word	19383
 474 0148 674B0000 		.word	19303
 475 014c 184B0000 		.word	19224
 476 0150 CA4A0000 		.word	19146
 477 0154 7C4A0000 		.word	19068
 478 0158 2E4A0000 		.word	18990
 479 015c E0490000 		.word	18912
 480 0160 93490000 		.word	18835
 481 0164 47490000 		.word	18759
 482 0168 FA480000 		.word	18682
 483 016c AE480000 		.word	18606
 484 0170 63480000 		.word	18531
 485 0174 17480000 		.word	18455
 486 0178 CC470000 		.word	18380
 487 017c 82470000 		.word	18306
 488 0180 37470000 		.word	18231
ARM GAS  C:\Users\diego\AppData\Local\Temp\cc6Vs0BO.s 			page 13


 489 0184 ED460000 		.word	18157
 490 0188 A4460000 		.word	18084
 491 018c 5B460000 		.word	18011
 492 0190 12460000 		.word	17938
 493 0194 C9450000 		.word	17865
 494 0198 81450000 		.word	17793
 495 019c 39450000 		.word	17721
 496 01a0 F1440000 		.word	17649
 497 01a4 AA440000 		.word	17578
 498 01a8 63440000 		.word	17507
 499 01ac 1D440000 		.word	17437
 500 01b0 D6430000 		.word	17366
 501 01b4 90430000 		.word	17296
 502 01b8 4B430000 		.word	17227
 503 01bc 05430000 		.word	17157
 504 01c0 C0420000 		.word	17088
 505 01c4 7C420000 		.word	17020
 506 01c8 37420000 		.word	16951
 507 01cc F3410000 		.word	16883
 508 01d0 AF410000 		.word	16815
 509 01d4 6C410000 		.word	16748
 510 01d8 29410000 		.word	16681
 511 01dc E6400000 		.word	16614
 512 01e0 A3400000 		.word	16547
 513 01e4 61400000 		.word	16481
 514 01e8 1F400000 		.word	16415
 515 01ec DE3F0000 		.word	16350
 516 01f0 9C3F0000 		.word	16284
 517 01f4 5B3F0000 		.word	16219
 518 01f8 1A3F0000 		.word	16154
 519 01fc DA3E0000 		.word	16090
 520 0200 9A3E0000 		.word	16026
 521 0204 5A3E0000 		.word	15962
 522 0208 1A3E0000 		.word	15898
 523 020c DB3D0000 		.word	15835
 524 0210 9C3D0000 		.word	15772
 525 0214 5D3D0000 		.word	15709
 526 0218 1F3D0000 		.word	15647
 527 021c E13C0000 		.word	15585
 528 0220 A33C0000 		.word	15523
 529 0224 653C0000 		.word	15461
 530 0228 283C0000 		.word	15400
 531 022c EB3B0000 		.word	15339
 532 0230 AE3B0000 		.word	15278
 533 0234 723B0000 		.word	15218
 534 0238 353B0000 		.word	15157
 535 023c F93A0000 		.word	15097
 536 0240 BE3A0000 		.word	15038
 537 0244 823A0000 		.word	14978
 538 0248 473A0000 		.word	14919
 539 024c 0C3A0000 		.word	14860
 540 0250 D2390000 		.word	14802
 541 0254 97390000 		.word	14743
 542 0258 5D390000 		.word	14685
 543 025c 23390000 		.word	14627
 544 0260 EA380000 		.word	14570
 545 0264 B1380000 		.word	14513
ARM GAS  C:\Users\diego\AppData\Local\Temp\cc6Vs0BO.s 			page 14


 546 0268 78380000 		.word	14456
 547 026c 3F380000 		.word	14399
 548 0270 06380000 		.word	14342
 549 0274 CE370000 		.word	14286
 550 0278 96370000 		.word	14230
 551 027c 5E370000 		.word	14174
 552 0280 26370000 		.word	14118
 553 0284 EF360000 		.word	14063
 554 0288 B8360000 		.word	14008
 555 028c 81360000 		.word	13953
 556 0290 4B360000 		.word	13899
 557 0294 14360000 		.word	13844
 558 0298 DE350000 		.word	13790
 559 029c A9350000 		.word	13737
 560 02a0 73350000 		.word	13683
 561 02a4 3E350000 		.word	13630
 562 02a8 08350000 		.word	13576
 563 02ac D4340000 		.word	13524
 564 02b0 9F340000 		.word	13471
 565 02b4 6A340000 		.word	13418
 566 02b8 36340000 		.word	13366
 567 02bc 02340000 		.word	13314
 568 02c0 CF330000 		.word	13263
 569 02c4 9B330000 		.word	13211
 570 02c8 68330000 		.word	13160
 571 02cc 35330000 		.word	13109
 572 02d0 02330000 		.word	13058
 573 02d4 CF320000 		.word	13007
 574 02d8 9D320000 		.word	12957
 575 02dc 6B320000 		.word	12907
 576 02e0 39320000 		.word	12857
 577 02e4 07320000 		.word	12807
 578 02e8 D6310000 		.word	12758
 579 02ec A4310000 		.word	12708
 580 02f0 73310000 		.word	12659
 581 02f4 42310000 		.word	12610
 582 02f8 12310000 		.word	12562
 583 02fc E1300000 		.word	12513
 584 0300 B1300000 		.word	12465
 585 0304 81300000 		.word	12417
 586 0308 51300000 		.word	12369
 587 030c 22300000 		.word	12322
 588 0310 F32F0000 		.word	12275
 589 0314 C32F0000 		.word	12227
 590 0318 942F0000 		.word	12180
 591 031c 662F0000 		.word	12134
 592 0320 372F0000 		.word	12087
 593 0324 092F0000 		.word	12041
 594 0328 DB2E0000 		.word	11995
 595 032c AD2E0000 		.word	11949
 596 0330 7F2E0000 		.word	11903
 597 0334 512E0000 		.word	11857
 598 0338 242E0000 		.word	11812
 599 033c F72D0000 		.word	11767
 600 0340 CA2D0000 		.word	11722
 601 0344 9D2D0000 		.word	11677
 602 0348 712D0000 		.word	11633
ARM GAS  C:\Users\diego\AppData\Local\Temp\cc6Vs0BO.s 			page 15


 603 034c 442D0000 		.word	11588
 604 0350 182D0000 		.word	11544
 605 0354 EC2C0000 		.word	11500
 606 0358 C02C0000 		.word	11456
 607 035c 952C0000 		.word	11413
 608 0360 692C0000 		.word	11369
 609 0364 3E2C0000 		.word	11326
 610 0368 132C0000 		.word	11283
 611 036c E82B0000 		.word	11240
 612 0370 BE2B0000 		.word	11198
 613 0374 932B0000 		.word	11155
 614 0378 692B0000 		.word	11113
 615 037c 3F2B0000 		.word	11071
 616 0380 152B0000 		.word	11029
 617 0384 EB2A0000 		.word	10987
 618 0388 C22A0000 		.word	10946
 619 038c 982A0000 		.word	10904
 620 0390 6F2A0000 		.word	10863
 621 0394 462A0000 		.word	10822
 622 0398 1D2A0000 		.word	10781
 623 039c F5290000 		.word	10741
 624 03a0 CC290000 		.word	10700
 625 03a4 A4290000 		.word	10660
 626 03a8 7C290000 		.word	10620
 627 03ac 54290000 		.word	10580
 628 03b0 2C290000 		.word	10540
 629 03b4 04290000 		.word	10500
 630 03b8 DD280000 		.word	10461
 631 03bc B5280000 		.word	10421
 632 03c0 8E280000 		.word	10382
 633 03c4 67280000 		.word	10343
 634 03c8 40280000 		.word	10304
 635 03cc 1A280000 		.word	10266
 636 03d0 F3270000 		.word	10227
 637 03d4 CD270000 		.word	10189
 638 03d8 A7270000 		.word	10151
 639 03dc 81270000 		.word	10113
 640 03e0 5B270000 		.word	10075
 641 03e4 35270000 		.word	10037
 642 03e8 10270000 		.word	10000
 643 03ec EB260000 		.word	9963
 644 03f0 C6260000 		.word	9926
 645 03f4 A0260000 		.word	9888
 646 03f8 7C260000 		.word	9852
 647 03fc 57260000 		.word	9815
 648 0400 32260000 		.word	9778
 649 0404 0E260000 		.word	9742
 650 0408 EA250000 		.word	9706
 651 040c C6250000 		.word	9670
 652 0410 A2250000 		.word	9634
 653 0414 7E250000 		.word	9598
 654 0418 5A250000 		.word	9562
 655 041c 37250000 		.word	9527
 656 0420 14250000 		.word	9492
 657 0424 F0240000 		.word	9456
 658 0428 CD240000 		.word	9421
 659 042c AB240000 		.word	9387
ARM GAS  C:\Users\diego\AppData\Local\Temp\cc6Vs0BO.s 			page 16


 660 0430 88240000 		.word	9352
 661 0434 65240000 		.word	9317
 662 0438 43240000 		.word	9283
 663 043c 21240000 		.word	9249
 664 0440 FE230000 		.word	9214
 665 0444 DC230000 		.word	9180
 666 0448 BB230000 		.word	9147
 667 044c 99230000 		.word	9113
 668 0450 77230000 		.word	9079
 669 0454 56230000 		.word	9046
 670 0458 35230000 		.word	9013
 671 045c 13230000 		.word	8979
 672 0460 F2220000 		.word	8946
 673 0464 D1220000 		.word	8913
 674 0468 B1220000 		.word	8881
 675 046c 90220000 		.word	8848
 676 0470 70220000 		.word	8816
 677 0474 4F220000 		.word	8783
 678 0478 2F220000 		.word	8751
 679 047c 0F220000 		.word	8719
 680 0480 EF210000 		.word	8687
 681 0484 CF210000 		.word	8655
 682 0488 B0210000 		.word	8624
 683 048c 90210000 		.word	8592
 684 0490 71210000 		.word	8561
 685 0494 52210000 		.word	8530
 686 0498 32210000 		.word	8498
 687 049c 13210000 		.word	8467
 688 04a0 F5200000 		.word	8437
 689 04a4 D6200000 		.word	8406
 690 04a8 B7200000 		.word	8375
 691 04ac 99200000 		.word	8345
 692 04b0 7A200000 		.word	8314
 693 04b4 5C200000 		.word	8284
 694 04b8 3E200000 		.word	8254
 695 04bc 20200000 		.word	8224
 696 04c0 02200000 		.word	8194
 697 04c4 E51F0000 		.word	8165
 698 04c8 C71F0000 		.word	8135
 699 04cc A91F0000 		.word	8105
 700 04d0 8C1F0000 		.word	8076
 701 04d4 6F1F0000 		.word	8047
 702 04d8 521F0000 		.word	8018
 703 04dc 351F0000 		.word	7989
 704 04e0 181F0000 		.word	7960
 705 04e4 FB1E0000 		.word	7931
 706 04e8 DE1E0000 		.word	7902
 707 04ec C21E0000 		.word	7874
 708 04f0 A51E0000 		.word	7845
 709 04f4 891E0000 		.word	7817
 710 04f8 6D1E0000 		.word	7789
 711 04fc 511E0000 		.word	7761
 712 0500 351E0000 		.word	7733
 713 0504 191E0000 		.word	7705
 714 0508 FE1D0000 		.word	7678
 715 050c E21D0000 		.word	7650
 716 0510 C61D0000 		.word	7622
ARM GAS  C:\Users\diego\AppData\Local\Temp\cc6Vs0BO.s 			page 17


 717 0514 AB1D0000 		.word	7595
 718 0518 901D0000 		.word	7568
 719 051c 751D0000 		.word	7541
 720 0520 5A1D0000 		.word	7514
 721 0524 3F1D0000 		.word	7487
 722 0528 241D0000 		.word	7460
 723 052c 091D0000 		.word	7433
 724 0530 EF1C0000 		.word	7407
 725 0534 D41C0000 		.word	7380
 726 0538 BA1C0000 		.word	7354
 727 053c 9F1C0000 		.word	7327
 728 0540 851C0000 		.word	7301
 729 0544 6B1C0000 		.word	7275
 730 0548 511C0000 		.word	7249
 731 054c 371C0000 		.word	7223
 732 0550 1E1C0000 		.word	7198
 733 0554 041C0000 		.word	7172
 734 0558 EB1B0000 		.word	7147
 735 055c D11B0000 		.word	7121
 736 0560 B81B0000 		.word	7096
 737 0564 9F1B0000 		.word	7071
 738 0568 861B0000 		.word	7046
 739 056c 6D1B0000 		.word	7021
 740 0570 541B0000 		.word	6996
 741 0574 3B1B0000 		.word	6971
 742 0578 221B0000 		.word	6946
 743 057c 091B0000 		.word	6921
 744 0580 F11A0000 		.word	6897
 745 0584 D91A0000 		.word	6873
 746 0588 C01A0000 		.word	6848
 747 058c A81A0000 		.word	6824
 748 0590 901A0000 		.word	6800
 749 0594 781A0000 		.word	6776
 750 0598 601A0000 		.word	6752
 751 059c 481A0000 		.word	6728
 752 05a0 301A0000 		.word	6704
 753 05a4 191A0000 		.word	6681
 754 05a8 011A0000 		.word	6657
 755 05ac EA190000 		.word	6634
 756 05b0 D3190000 		.word	6611
 757 05b4 BB190000 		.word	6587
 758 05b8 A4190000 		.word	6564
 759 05bc 8D190000 		.word	6541
 760 05c0 76190000 		.word	6518
 761 05c4 5F190000 		.word	6495
 762 05c8 48190000 		.word	6472
 763 05cc 32190000 		.word	6450
 764 05d0 1B190000 		.word	6427
 765 05d4 05190000 		.word	6405
 766 05d8 EE180000 		.word	6382
 767 05dc D8180000 		.word	6360
 768 05e0 C2180000 		.word	6338
 769 05e4 AC180000 		.word	6316
 770 05e8 95180000 		.word	6293
 771 05ec 7F180000 		.word	6271
 772 05f0 6A180000 		.word	6250
 773 05f4 54180000 		.word	6228
ARM GAS  C:\Users\diego\AppData\Local\Temp\cc6Vs0BO.s 			page 18


 774 05f8 3E180000 		.word	6206
 775 05fc 28180000 		.word	6184
 776 0600 13180000 		.word	6163
 777 0604 FD170000 		.word	6141
 778 0608 E8170000 		.word	6120
 779 060c D3170000 		.word	6099
 780 0610 BE170000 		.word	6078
 781 0614 A9170000 		.word	6057
 782 0618 93170000 		.word	6035
 783 061c 7F170000 		.word	6015
 784 0620 6A170000 		.word	5994
 785 0624 55170000 		.word	5973
 786 0628 40170000 		.word	5952
 787 062c 2C170000 		.word	5932
 788 0630 17170000 		.word	5911
 789 0634 03170000 		.word	5891
 790 0638 EE160000 		.word	5870
 791 063c DA160000 		.word	5850
 792 0640 C6160000 		.word	5830
 793 0644 B2160000 		.word	5810
 794 0648 9E160000 		.word	5790
 795 064c 8A160000 		.word	5770
 796 0650 76160000 		.word	5750
 797 0654 62160000 		.word	5730
 798 0658 4E160000 		.word	5710
 799 065c 3B160000 		.word	5691
 800 0660 27160000 		.word	5671
 801 0664 13160000 		.word	5651
 802 0668 00160000 		.word	5632
 803 066c ED150000 		.word	5613
 804 0670 D9150000 		.word	5593
 805 0674 C6150000 		.word	5574
 806 0678 B3150000 		.word	5555
 807 067c A0150000 		.word	5536
 808 0680 8D150000 		.word	5517
 809 0684 7A150000 		.word	5498
 810 0688 67150000 		.word	5479
 811 068c 55150000 		.word	5461
 812 0690 42150000 		.word	5442
 813 0694 2F150000 		.word	5423
 814 0698 1D150000 		.word	5405
 815 069c 0A150000 		.word	5386
 816 06a0 F8140000 		.word	5368
 817 06a4 E6140000 		.word	5350
 818 06a8 D4140000 		.word	5332
 819 06ac C1140000 		.word	5313
 820 06b0 AF140000 		.word	5295
 821 06b4 9D140000 		.word	5277
 822 06b8 8B140000 		.word	5259
 823 06bc 79140000 		.word	5241
 824 06c0 68140000 		.word	5224
 825 06c4 56140000 		.word	5206
 826 06c8 44140000 		.word	5188
 827 06cc 33140000 		.word	5171
 828 06d0 21140000 		.word	5153
 829 06d4 10140000 		.word	5136
 830 06d8 FE130000 		.word	5118
ARM GAS  C:\Users\diego\AppData\Local\Temp\cc6Vs0BO.s 			page 19


 831 06dc ED130000 		.word	5101
 832 06e0 DC130000 		.word	5084
 833 06e4 CA130000 		.word	5066
 834 06e8 B9130000 		.word	5049
 835 06ec A8130000 		.word	5032
 836 06f0 97130000 		.word	5015
 837 06f4 86130000 		.word	4998
 838 06f8 75130000 		.word	4981
 839 06fc 65130000 		.word	4965
 840 0700 54130000 		.word	4948
 841 0704 43130000 		.word	4931
 842 0708 33130000 		.word	4915
 843 070c 22130000 		.word	4898
 844 0710 12130000 		.word	4882
 845 0714 01130000 		.word	4865
 846 0718 F1120000 		.word	4849
 847 071c E1120000 		.word	4833
 848 0720 D0120000 		.word	4816
 849 0724 C0120000 		.word	4800
 850 0728 B0120000 		.word	4784
 851 072c A0120000 		.word	4768
 852 0730 90120000 		.word	4752
 853 0734 80120000 		.word	4736
 854 0738 70120000 		.word	4720
 855 073c 61120000 		.word	4705
 856 0740 51120000 		.word	4689
 857 0744 41120000 		.word	4673
 858 0748 32120000 		.word	4658
 859 074c 22120000 		.word	4642
 860 0750 13120000 		.word	4627
 861 0754 03120000 		.word	4611
 862 0758 F4110000 		.word	4596
 863 075c E4110000 		.word	4580
 864 0760 D5110000 		.word	4565
 865 0764 C6110000 		.word	4550
 866 0768 B7110000 		.word	4535
 867 076c A8110000 		.word	4520
 868 0770 99110000 		.word	4505
 869 0774 8A110000 		.word	4490
 870 0778 7B110000 		.word	4475
 871 077c 6C110000 		.word	4460
 872 0780 5D110000 		.word	4445
 873 0784 4F110000 		.word	4431
 874 0788 40110000 		.word	4416
 875 078c 31110000 		.word	4401
 876 0790 23110000 		.word	4387
 877 0794 14110000 		.word	4372
 878 0798 06110000 		.word	4358
 879 079c F7100000 		.word	4343
 880 07a0 E9100000 		.word	4329
 881 07a4 DB100000 		.word	4315
 882 07a8 CC100000 		.word	4300
 883 07ac BE100000 		.word	4286
 884 07b0 B0100000 		.word	4272
 885 07b4 A2100000 		.word	4258
 886 07b8 94100000 		.word	4244
 887 07bc 86100000 		.word	4230
ARM GAS  C:\Users\diego\AppData\Local\Temp\cc6Vs0BO.s 			page 20


 888 07c0 78100000 		.word	4216
 889 07c4 6A100000 		.word	4202
 890 07c8 5C100000 		.word	4188
 891 07cc 4F100000 		.word	4175
 892 07d0 41100000 		.word	4161
 893              		.text
 894              	.Letext0:
 895              		.file 2 "Generated_Source\\PSoC4\\cytypes.h"
